:200000008E8013CE01F9C60ABD85978E8026C60A7E859706801D805A09801D8077A0A0A0B6
:20002000A0A0A0A0A0A0068030805A018071807743484149CE45524153C54C4C4953D44C60
:200040005052494ED4534F554EC4504C41D9808E8448CD889A7FEBBAEC7281F322088E80DD
:200060004E80EE7EC69C81F322037E92A06E9F02104C504FD3C947C16823046E9F0215C07A
:20008000683404BD928835048E80757EC637BD81317D02EF260A7D01B5270ABD826F200B68
:2000A0007D01B52606BD81A7BD827FBD83217305BCDC33FD01BFDC3FFD01BB933D1F02D345
:2000C000351F04DD3F1F20D33BFD01B9FE01BB9E3D9C352706A682A7C220F67D01B627080B
:2000E000BD9FD39E69BDC7327ECF777D05BC270632620DBF27197E0281BDD498BD8FC97D89
:2001000001BE26077D02EF10270E585F7E8F708DE85FBD83BFBDC730BE01B726049E3320F4
:20012000099F4BBD8F1C10250F5A301F9FD97EC63DC6FFF702F07F02EE7F02EF7F01B57F3D
:2001400001B67F01BE8E0000BF01B781AC26087C02EE7302EF9DD2BDCC379DD82745BD921B
:2001600092812C270FBD9A028CFA002437BF01B79DD8272FBD9292812C2717814126169D27
:20018000D2814C261F9DD2814C26197301B59DD22711BD9292819E260B7301B69DD2BD9F0A
:2001A0000B9FA2397E92A09E47109ED934309E3320029ED9EE8127313440EE80DF479FD989
:2001C0009DD2BDA3EF4D271B818025F4BDA41027F481B126EB9DD2270A81A226E39DD22787
:2001E000028D0E35109FD920C935309F47109FD939BD95188128271A9E359C3B243CE684E8
:200200005454545434148D3C350427263085326220E89DD28129102610869DD29E3B9C3DA0
:200220001027143F34108D1C2708EC84308B326220EC3510A60184BFA7019DD82705BD9286
:200240009220AE39BD95C7E684C40FCB02A184261C30015AA6848A40A1C0261130015A27B2
:200260000BA684A1C0260630015A26F5393A399E359C3B24098D2E5824F78D3720F3399EB7
:20028000359C3B24498D1EC440270F81032607301DBD985030038D1B20E78D0220E3E621E2
:2002A000CA40E721391F128D6A3086E621109F639F61399C3D2706A680A7A020F6DC61936A
:2002C00063509E3B30859F3B109F3D9E63399C3D242434108D3D9F61EC84308B9F49352046
:2002E000ECA4C4402711342084F0813026028D198D09351020D8398DA520D39C3D2706A60E
:2003000080A7A020F6109F3D399E617F01BD8D7E9E4939E6841F98C40F444444443A300204
:2003200039BD83A4C6FFF701BD9E359C3B24141F128DE0E621C1802406810326028D1F30AC
:200340008620E89C3D24168DCA3412EC84308B9F493512810326028D359E4920E6397D01F3
:20036000BD102714EBE684EE013412119335241C11933325173440BD97D73510BD98E6356B
:2003800012DE413341EF013412BD986535923002E6844F58493001308B9C4927068DBF30FB
:2003A0000320F6399E359C3B2412BD8313810326073402BD98653502308620EA7E987C7D11
:2003C00005BC276EC13326187D02EF272E7F02EF9E35301E9F338D5D7301BE32627ECF77FB
:2003E0007D01BE27167F01BE9E33AE029C49220B9E336F806F809F357ECEF47F05BC10AEF2
:20040000E4DE359E3FBC01BB2706A680A7C020F5FC01BFDD33DC3F9335DD69FC01B993691A
:20042000DD3BFC01BB1F04DD3F34209369DD3DBD83A47E026CBE01BF9C33240910AE81EECC
:20044000841F2120F3DF4939BD95182703BD92929E3B9C3D1027120B3410BD95C73402BD99
:20046000824734049F61EC84308B9F49E6E02704326320DE350284F081302603BD830935E1
:2004800020BD82FB9DD826C07E987C1A504D26038E8000BFFFF8C6FF8EFFFF3001BCFFF83C
:2004A000240CE784E184260663846D8427EDB7059F301EBF059D9F459F413089FED49F3FED
:2004C0001F14C628D7C3C60EF70311CE05EDFF02AC8604B703395F8EFC00E7808CFC80261A
:2004E000F9BEFFF8BFFC00867E8EF17D97DE9FDFBD867BFF02B033C900FFFF02B28E87FE70
:20050000C606BD85971F3233C81AFF02B433C812FF02B63345FF02B833C819FF02BA33C85C
:2005200032FF02BC3345FF02BE3345FF05AA8D02200CEFA1C6158E87E98D5C334239F6FDC1
:2005400005C50126628E02C09F238EFD065F8610A701A60181FF27038D195F8EFD223002D3
:200560005CC10527428610A701A60181FF27EF8D0220EB3414AFC817EFA19E23EF819F2382
:20058000C6128E87598D10E6E4CB30E751C6CFE74733C9008D3594A680A7C05A26F939A780
:2005A000C0AFC15A26F9393341DF338E87B5CE00D2C60C8DE28E87C1CE01D1C6288DD8BDA2
:2005C00080008E92A0AF43AF48CE02178E9663C60BAFC15A26FB867EC6058DC38ECF0AC67C
:2005E0000C8DBC8E92A08639B705E2C6168DB0867E8ECF0ACE05D3C6038DA4B705DF8EED4F
:2006000072BF05E08614B7030D4AB7030FCC0707FD05DD8D7D8D3F8E8810CE02FAC606BD48
:200620008597BDEC29DE33335F7D059F27046E9FFC00BD8F398E87589FD9034703488E87C0
:2006400002BD9BDBDC3F9333BDB6158E8749BD9BDB1CAF7E8E728D74CC800ACE02A2A7C0F2
:200660005A26FB8D418617BDDBE1BDE44EBDC8BC0FBF8E86777E9BDB1B680086188E05A04A
:20068000A7840EDE4F1F8B8DCD8DF08D051CAF7ED6808E8804CEFFF2C60C17FEFA8640B70B
:2006A000FD02B705D23934408E02A2CE0102860BA7C0C60ABD85978E05A08610A784CC019B
:2006C00000ED02CC000DED049DDE35C08E876BC6013404CE0102862AEDC1E680E7C0BD85F4
:2006E000971F128E05A08610A784CC0100ED024FF60104CB05ED049DDE35041F215CC10B5B
:2007000026CF3946554A4954535520462D42415349432056657273696F6E20332E300D0ABE
:20072000436F707972696768742028432920313938312042792046554A495453552F4D496F
:2007400043524F534F46540D0A0020427974657320467265650D0A0000434F4D30D1ADD124
:2007600098D2B5D25CD39CD3A5D3B4054155544F20054C4953540D0452554E0D05434F4E27
:20078000540D064C4C4953540D054C4F41440D0553415645220D3F44415445242C54494D31
:2007A00045240D0A53435245454E372C370D0648415244430D0CDA26020CD9B600007EC7EF
:2007C000603B00003B00003B00003B00007ED2FC7EC9530D010700FFFF0AFF027EDCA66861
:2007E00088908ADA2B8A2C88164C505430D9A5D615CEF4D617D39CCEF4CEF4005038DB0D63
:20080000D980C9E801D101D401E001DD01D701DA080201020001B3BEB472B3D5972CC92AD2
:20082000BAEEB0AABB5BBE60BE66BEB1BEF59A26992A975299CA99479933BC74BCE0BCCD6C
:20084000B4619D7B9E2C9E2DD11DD11A025A9952996F99799CD4EAF6AED2A9529D59BBFE22
:20086000DB84D15CC923DF78E11AE19079BD4D79BD3F7CBD737C93CD7FBE445094A84694D6
:20088000AD3C94B23294B72894BC7ABE337BBE0C454EC4464FD24E4558D4444154C14449E0
:2008A000CD524541C44C45D447CF5255CE49C6524553544F52C55245545552CE5245CDA7C1
:2008C00053544FD0454C53C554524FCE54524F46C6535741D04445465354D2444546494E7C
:2008E000D4444546534EC74445464442CC4FCE48415244C352454E55CD454449D445525237
:200900004FD2524553554DC5415554CF44454C4554C5544552CD57494454C8554E4C495336
:20092000D44D4FCE4C4F434154C5434CD3434F4E534F4CC5505345D45052455345D44D4FA1
:20094000544FD2534B4950C6534156C54C4F41C44D455247C5455845C34F5045CE434C4FB1
:2009600053C546494C45D3434FCD4B45D95041494ED4424545D0434F4C4FD24C494EC54421
:2009800045C6504F4BC55052494ED4434F4ED44C4953D4434C4541D252414E444F4D495AD5
:2009A000C55748494CC557454EC44E45D74745D45055D4434952434CC5434F4E4E4543D4CC
:2009C00053594D424FCC47435552534FD2425542494EC9425542D7425542D24B494CCC4993
:2009E0004E5445525641CC544142A854CF5355C246CE535043A85553494EC75553D2455296
:200A0000CC4552D24F46C6544845CE4E4FD4535445D0ABADAAAFDE414EC44FD2584FD245A9
:200A200051D6494DD04D4FC4DCBEBDBC5347CE494ED44142D34652C5504FD35351D24C4FAD
:200A4000C74558D0434FD35349CE5441CE4154CE504545CB4C45CE535452A45641CC415335
:200A6000C3434852A443494ED443534EC7434442CC4649D85350414345A4484558A44F43B2
:200A800054A44C4FC6454FC65045CE4C454654A45249474854A44D4944A4494E5354D2536E
:200AA00043524545CE414E504F52D45641525054D2535452494E47A4524EC4494E4B455937
:200AC000A4494E5055D44353524C49CE504F494ED454494DC5444154C5008FD0A203A2C753
:200AE00090A094C5BFF39195902D901290F18FBC907190A390A38FD990A3A01AA01BA784C8
:200B00009F739F769F799F7C01ECADDCA9CAD8ACA739A7449FE79FBCD52DC87BC912ABF4A3
:200B2000C8F0DA80C814DFA6DFACD758CAE6CD3ECF31CF29C76FCEA8CE73CBB5D444DB94E1
:200B4000E4C8DB2AC7CAE064A7D99A309AB39002CD01C77BBBE5AD54AD818F32E7EFE80A7E
:200B6000E552DCFADDA8DE33EB8EEB91EB94EB9AE3BA89089D8A17DE8A32028A4D0B8A5E07
:200B8000108AA521008972B489CDC789D3C889D7C900892AA4892DA5895DAF8967B18976F5
:200BA000B5898BBA8993BC89B3C389B9C48A44088A61118A65128A69138A6D148AC627007A
:200BC000889A83889E8488D59388DB9488E19588E796890C9E897FB78AD52A008890808841
:200BE000C48F88F99A88FD9B8955AD89FED38A01D48A1FE18A41078A851A00889381896217
:200C0000B089F0CF8A35038A71150088A88789ADC189C6C60088EF988A7A170088AD8989D6
:200C2000DFCB8A22E28A2F018A9A1F8ABB258AC12600896AB289DBCA0088A5868924A38945
:200C40004CAB897BB6898FBB8A3E068A540D8A82198A8B1C008921A2893EA88950AC8A2512
:200C6000E38A961E0088968289AAC08A0BD70088ED978959AE8A04D58A1ADF8A7E18008929
:200C800034A68938A7896DB38982B88986B989B0C28A38048A500C8A881B8ACC280088A163
:200CA0008588AA8888AF8A88B68B88BC8C88F49989029C8998BD8A901D8AB8240088C08E0E
:200CC00088D1928943A98948AA89C0C589EDCE89F2D08A0ED88A2C008A3B058A47098A57F1
:200CE0000E8A74168AB1238A9F200088C89088CC9189129F89E7CC89EBCD8A07D68A4A0A6A
:200D00008AD12900891BA189F6D189FBD2008A5B0F8AAB22008916A089A1BE89A6BF008A7A
:200D20001CE0008B728B858B928BC08BDC8BFB8C0B8C158C1C00008C328C398C558C658C94
:200D40006F8C7F00008C9E8CBD8CEB8D048D0E8D158D1F000000000D0A52656164790D0A92
:200D6000000D0A427265616B0030649F23A684C60780BE2712C61180C32614AE019F259E4E
:200D80005A27089C2527088D3620E09E259F5A9E234D398D19DE5F33419E613001A682A7BE
:200DA000C29C6926F8DF639E69394F58D33DC30046251310DF31109331220B394F9F23D396
:200DC00023DD259E2539C6079E3F301F9FAF8CC638D7AC7F05A9BD83BFBD026F861197BF57
:200DE000BDCE4B4F97BF9715BDD772BDD6B59E479FAD30012704301F9FA69EE927049665B0
:200E0000A784B602F32703BD8F398E8E1310DEAF7E8F919E4F9FB29EAD30012715301F9FFF
:200E2000499E4F9F4D9EB4270996B1260503B17EC65DBD9B47D6ACC1412408C1322406C11A
:200E40001B2504C62CC0178EA44534045F3001BD90AE35045A26F33410BDEC0535108607DB
:200E6000BDD08EBD9B50BD9BDB9E4730012703BDB60E0FBF7F05AC7D05BE27067F05BEBD51
:200E8000D64A8E8D56BD9BDBBDD94ABDD7F725F80DC01026417B9FD99DD227EC8EFFFF9F22
:200EA00047250C96BF1026FF26BDC28C7EC67ABD9162BDCDC6DC4BDDE49E4BBF033A7F03F2
:200EC0003C9ED9301FA684812027F8810927F4A601812026023001BDC288DD13DCE4DD4B01
:200EE0008D3A9F4925099FA2AE849FA4BD9FD3B6033C271E9E4B9FA6DC35DD61D313DD5F57
:200F0000BD8D93CE0338A6C0A7809C6326F89E5F9F358D379E49BDC7327E8E88DC4B9E3383
:200F2000EE84270910A3022306AE8420F31A019F69391026036ABDCE819E336F806F809F93
:200F4000350FA98EFFFFBF01E70FD19E33301F9FD9BD80EBBDD4989E459F418D6C9E359F7A
:200F60003B9F3DCE0404C60D8E031FEF815A26FBD7B1D7B4D7B58E804FBF03188EC752BFDA
:200F8000031AAEE410DE3F4F340210DFAF974D974E9F2334109E1E8C057825118C0596223F
:200FA0000C8C0578270A301DBD985020F48E05789F1E0F1A7F02F30FE90FEA39270BBD9ACD
:200FC0003ABD8F1C24057E90849E33301F9F5339BDCE819DD820040FBF1A0126349ED99F6B
:200FE0004F10DEAF7605989E4730012708301F9F499E4F9F4D8E8D607D0598102AFE737EDF
:201000008E63C6119E4D26037E8DD19FD99E499F47393402BDEC053502812210273F03BDA6
:20102000CE819DD81027FF23BD8F5120211F899DD2C1CD2720C1CE2650C604BD8DAADC47E3
:201040003406DCD934064F5F340686CE34028D057EC63D32649DD8BD9A3A8D4F3001DC4B12
:2010600010934722029E33BD8F202518301F9FD93986FF975ABD8D691F1410DFAF814D27F9
:201080000BC6038CC6087E8DD17E92A03502AEE127026F019DD826BB3506DDD93506DD4791
:2010A0008D068C8D069FD939C63A865F9ED9D7115FD7E61F98D6119711A684340481FE2620
:2010C0000A3001E680C40F3085A68435044D27D73404A1E027D13001812227114C260230D8
:2010E000010DE626D4818A26D00C9420CC03E620C2BD92C39DD88187260C9ED99DD29FD98B
:2011000081CD27072083C6D6BD9294BDB3C826130F948D8C4D27909DD2818F26F50A942A9E
:20112000F19DD29DD8DED9E6411083FEF21027FF247EC680819B102715D5BD99BCC687BD02
:201140009294340281CE270481CD26B80A77260535047E902F9DD2BD9A3A812C27EE9DD834
:2011600035848E00009F4B25020ED880309711DC4B8118228F58495849D34B5849DB1189F2
:2011800000DD4B9ED930019FD9A684813A24D8803080D020D2BD950F9F5AC6E6BD929496B5
:2011A000173402BD92C33502BDBCC196178103102621829E76EC01BD028710933F23119C5C
:2011C00035250DE684BD97909E6DBD98E48E007E9F6DBD991B9E5ABD9850C6039E6DDE5AE4
:2011E000BD8597305D7E9865C6167E92A2BD02729ED9BD929E27F181FE26369ED93001A6AA
:201200008081F22609EE81DF769FD97EBD19810126054FE68020068102260AEC81DD76869B
:201220000297172009840F9717BDB30130869FD939BD94FD247681DA276B81D927AF812214
:2012400026089ED9BD979B7E99F481D7260C865A8D7BBDBC740376037739812610270C1E5C
:2012600081D42608D6AC9DD24F7E974D81D326099DD29EAD9F767EBD1981D2102717218160
:20128000CF102715A54C27338D058D37C6298CC6288CC62C9ED9A6843404A1E026020ED249
:2012A000C6027E8DD1867D8D247EBDC9BD950F9F76961781032601397EB3017EC5E28D03E4
:2012C0007EBCAE9ED9301F9FD94F8C965C3402C601BD8DAABD91ED0F150F5E9ED99FB69DF5
:2012E000D880E525138103240F810149985E915E25AE975E9DD220E9D65E1026013525020B
:2013000035828B0C24FA1F89260A961781031027059C1F98483404ABE08E886C1F893AA6B4
:20132000E4E6843404A1E024D7BDBCAE8D0220A7D75CC17F2768EE013440C1512572C4FE5E
:20134000C17A2777BD93E8BD92CBBD9411D65DC1082606BDBCCD0C1539BDBCAE252FD717CF
:201360008D028DEFDC889E7A9F88DD7ADC869E789F86DD78DC829E749F82DD74968AD67C22
:20138000D78A977CDC849E769F84DD76392808D7178DE18D0620DDC10426E97EBCE08DFB24
:2013A0008D46BD92CB8DF48D689682D6747EBAF78D0DAEE1DC76AD847E974D8D0220C5BDFA
:2013C000BC748D24BD92CBBDBC748D4539961781022608BDBCFF8D9CBDBCFF968A987C97D8
:2013E0008B9682D6747EB236AEE1961781022704D67C34049F238E007781042F038E007B9F
:20140000E6843404301F4A26F7961734029E236E84AEE19F233502975D810227108E008298
:201420003504E7804A26F93504D78A20E03506DD8420DA3502816425059EB69FD9399ED9B1
:20144000301F9FD9340234048D13CB01591F41E48435022702C6FFBDB3C07E92D7C66496CE
:2014600017810327068E88787E93301F98DE763440BD92CDBD98F4D77E9F7FAEE1BD98F9A1
:20148000967E3404A0E0270786012403D67E40977C1F139E7F5C5A2603D67C39A6C0A180BD
:2014A00027F4C6FF240150399484D485399A84DA85399884D885398DF943533943538DE82C
:2014C00020F7BD92921F898D499DD826F539B70568847F8D2824037E92A0DED933418E055C
:2014E00069C601A6C08D16240B8D1B2407D757335FDFD939C11027EB5CA78020E6814125AD
:2015000004805B80A53981302504803A80C6395F9DD8D7168D02202FBD02938DB1C6028103
:201520002527205C8124271B5C812127165881232711F60568C47F8E02DE3AE6849ED9302E
:201540001F9FD9D7170ED2D61A5A102700EC5C260680281027008F0F1A9E359C3B2711E6D2
:20156000845454545434048D463504273D3A20EB8EB21BECE410B395AD272F9E3D9F61D673
:2015800017DB575C3A9F5F1F109E3B9F69BD8D939E5F9F3D9E639F3BBD987C9E698D28A799
:2015A00080A6C05A2AF96F846F019F583992AF8D16E684C40FCB02A18427043A308439A62A
:2015C000C030015A26F139CE0568961748484848D6575A3404ABE05C399DD2BD92BEBDBC94
:2015E00074D6762B7E39D616961734065F3404D6575C54C900BD8DAA8E0568D657A68034C3
:20160000025A26F9D65734048DCF3504D7578E05673AD6573502A784301F5A26F73504EE77
:20162000E43440DE76EF625C9DD8812C27BFD713BD928C35069717D716C65F34049E3B9CDC
:201640003D2725BD95AF2707EC84BD8DBD20F0C60AA6E02601399616260BD613E102275C69
:20166000C6098CC6057E8DD1A6E026024C399617978E0F8DBD959DD613E702BD8DAA9F5F14
:20168000C60B4F0D1627053506C30001ED038D61DD8D30020A1326E8BD8DBD1025F727BD20
:2016A0008DAE830043DD3D4F301FA7039C2326F89E5F963D935FED8496162634E602D713DF
:2016C0004F5FDD8D3506DD7610A303245C968E9A8D1CFE27048D1ADB77997630020A132621
:2016E000E1DD8D4FD6178D0BC30003BD8DBD9F5839EC03DD31968ED6323DDDE2968D9A31BB
:201700002724968DD6323D4D261FDBE2251BD7E2968ED6313D4D2611DBE2250DD7E2968D17
:201720002704D6312603DCE2397E966010DF31DC318E003D3402961781033502260BBD98C7
:20174000F7BD980D8E003FDC41A384814FDD767EBCA03262BDBCAEBDB6204F5F8D02204631
:20176000DD119F8B9F7FC6FF5CA680270C91112704911226F381222702301F9F8D961281C0
:201780002C260A5C5A2706A682812027F7D77E399F6D8D439F7FD77E39301F86221F89303E
:2017A000018DBDBDC74F8DE89E8BBD98E69E1E8C0596260B8E007EBD9850C6107E8DD1DEDD
:2017C0007EEF849680A702BD9865860397179F219F7630039F1E390F19E7E227115386FF69
:2017E000D942994183000210933F2510DD419E4130019F434FE6E02702ED8B39BD0296C63E
:201800000E961926B78D060319350420CC9E4134109E451F13DF41ACE4271CA61F270E9C99
:20182000412616AE1FAE01301F1F1320E81F10A31F1F01301E20E0358610AE1F300133418A
:20184000A682A7C2AC2126F8EF21335F301F20C534104FE684270CAE019C3F23069C452250
:2018600002ED8B359034404FE684270EEE0111933F23071193452202AFCB35C09E3B9C3D9D
:20188000276EE6843404C40FCB023AEC84BD8DBD9F5F350244444444810326E29E23E60246
:2018A00058CB033A9C5F27D68DBB300320F6DC763406BD91EDBDBCA53506DD8B9E8BE68424
:2018C0009E76EB842405C60F7E8DD1BD97909E8BE6848D109E6D8D218D0C9E8B8D1BBD9720
:2018E000AD7E92D7AE015D2707DE43BD8597DF4339BD92C3BDBCA59E76E6848D1E2619AE7F
:2019000004301F9C41260E5D270B3404D341C30002DD413504300139AE01399C21260A9F8E
:201920001EBD9850301D9F214F398D037E974C8DC35D39BD99BFC601BD97D79677BD97947C
:20194000A78432627E97AD8D0220E18DE22768E684398D484FE1842303E6844F3406BD97DF
:20196000929E6D8D9435043A3504BD98E620D58D2BA6843404A0E020DCC6FFD7778D4981CD
:201980002927028D788D15272E5F4AA18424CD1F89E08450D17723C4D67720C0BD928C3572
:2019A00006DD3132623506D76D3504D76E9E6DDE3134401F894D397E96639DD2BD92BEBD16
:2019C00095DE967626F1D6770ED8BD992F26037EB3C0BD8DBCA68497659FE96F849ED99FE2
:2019E0008D9E23301F9FD9BDB50B9EE99665A7840FE90FEA9E8D9FD9398D079F4BBD92927C
:201A000020BABD92BEBDBCE0967C2A068E9A22BDAF1A967C2BA196748190229BBDB4359E7A
:201A2000763991000000BDCDC08DDAE6847E974CBDCDC08DC49E4BE784399ED93001E680B4
:201A40001083FEF21026F858EC81DD4B9FD90ED8BD92C9BD95DE9DD881291026F8428E0124
:201A6000009F84BDD0CA27060F8496D097854FBDBE33D677D0CF24048D34D6777E9BBE3480
:201A8000017F05BE8E9AB19DDE2405BDD67820F4BE02B4C623E78811C611D7BF35012604BD
:201AA0008D0C20028D2BBE02B46F8811200F7E9B50170027F98140102701708D030FBF3968
:201AC0008123260DBDCE90BDD0FA9DD827E0BD929281D1102705A8260139D6BFC11126030A
:201AE0007F05BE81CC1027FF6781D0102700C6812C2775813B10270085BD92C3BDBCB33439
:201B0000022706BDB620BD9799BDD0CAD6D0271996CF27159E76AB843404A1E0230B8D7F02
:201B200027057D05BF26028D27BD9BF335027D02D92708860D8D2E9DD8209C4D2703BD9C04
:201B4000229DD826952009BDD0CA270496CF27898D4D27037ED64A860D8D0ABDD0CAB60298
:201B6000D92677860A7ED08E96BF811126037305BEBDD0CA2718D6CFD1CE25148DD296BF76
:201B80008111264B7D05BE26467305BE2041D6CFD0CD24FC50BDD0CA7D02D92632202E34C4
:201BA000144FD6BFBE02B4E6852B07C40FC10326014C4D3594BD99BA81291026F6E2BDD0A7
:201BC000CA7D02D926090DBF2603BDD92F8D089DD27E9AD78D4C5A5D26FA390DBF2611EC2F
:201BE0000110830D0A260930023410BD9B503510BD979BBD98F796BF261CBDD92FB605ACAA
:201C00002614BF05A28E05A04FED048614A7849DDEAE023A5F395C5A2710A6808D0920F72F
:201C20008D0386208C863F7ED08E399DD28128261FBDE05BBD9292DCC5108302702303CC3A
:201C40000270FD05B3D6C8C1B82302C6B8F705B5BD92C3BD9A051F108E05A0847FC47FEDEF
:201C6000048616A784CC010EED029DDE8D4A108E0100EE84EF23334FEF273341EF844FE6A6
:201C800002ED25CB0FED29C61CED21B601E55F81072302C605ED2B8620A72DC62EBDDF13A8
:201CA0009DD8270F813B2706812C1026F5F29DD2269E398E05B3200B8E05B3EC841083029E
:201CC0007023104F5FED84E602CB10E702C1B82302A70239BD92C3C60134049617810327AD
:201CE00012BD99BFE7E41027F979BD9292BD92C3BDBCA5DC763406BD9292BD92C3BD928CDE
:201D0000BD98F49F8DD796AEE1BD98F9D795350297943404A1E0223DD69627361F895ABD96
:201D20008DBC9F8B9F239E8D9F25969590944CD6963404A1E0251E9E23A6809F239E25A16F
:201D40008427080C949E8B300120D730019F255A26E5D694865F7E974CBD99BC3404BD923C
:201D600092BD92C3BD928C961781032705BD99BF2003BD994B1F9835042005BD99BF8620DE
:201D80003402BD979235022705A7805A26FB7E9942BD950FBDBCA5EC0193352423EC0193CE
:201DA00033251DE684BD97D79E58AE019F769E58DC43ED01E6849E76BD98E69E58BD9865F3
:201DC000399DD2BD928F8DC99F97BD99FDD79A2758C6FF81292703BD99FDD799BD928CC6B1
:201DE000E6BD9294BD98F19F699699271D9E97A684909A25344C9199240297993404AE01C4
:201E0000D69A5ABD8DBCE6E026013996993404A1E024021F895A3404BD8DBC9F5F9E693544
:201E200004BD8DBC9F617E8D957E9663864F3402BD9A058E053FA6E446CC01062404C604B3
:201E4000860434045F08770976594A26F85D260AA6E44A27058C053F270CCB30C13A2502F5
:201E6000CB07E7806F8435045A3502270934024625CE860320CC8E053E32627E979B8E00B5
:201E8000009F768E00769DD2814F2708814827159DD820029DD225037EBD19813824F9C698
:201EA000038D1720EF9DD2250BBDC49025EA814724E68007C6048D0220EB68016984102565
:201EC00011825A26F58030AB01A70139DC4B7EB615BD9B5096BF2603BDDB59BDD6789CA4EB
:201EE0002606BDCE4B7E8E729FA2EC02DDA6B301E724EFDCA68DD7BD9C229EA2BDC1698EEC
:201F0000043DBDD90F9EA2AE8420C68E00009FA28EF9FF9FA49DD8272C812E270481FE26A4
:201F2000068D3F9E4B9FA29DD826049FA42016812C2603C62C8CC6DABD929427088D238D4A
:201F40001B9E4B9FA49EA29CA422739EA430019F4B8D069FA49EA29F4B7E8F1C27037E9265
:201F6000A039812E26069EA69F4B0ED28D03BD9A3A0ED8C6038CC6028CC6048CC608340493
:201F8000BD94FD25D934021F898DDF81DA260B8DD91F89BD94FD25C68DD01F98E6E4A0E07A
:201FA00025BC34028E02DEBD8DBC3506E7804A2AFB8DBE27AC3404BD929220C426037E962D
:201FC00063BD9F0B9FA28D0BBD8F4B9E69BDC7327E8E729EA29F69DEA41193352706A6C056
:201FE000A78020F59F35398E000A9F9E812C27129DD82707BD9F629E4B9F9E8E000A9DD849
:20200000270DBD9292270CBD9A3ABD9F5C9E4B9FA027AB0C9D32627E8E88864F97A9398690
:202020000197B934025ABDA1F69DD8260535027EA0CCD7BEBD92C3BDBCA59E769F6DD6B936
:20204000BD9954BD9BF33502814027099E76D6B9E084BD9BD77EA1CFD7BE9F23860297B910
:20206000A684812627BD812026070CB930015A26EF9E23D6BE8626BDA1F6BD9C272025BDA1
:2020800092C9BDBCA5C63BBD92949E769FBBBDD92F200696BD27089EBB0FBDE68426037ED2
:2020A0009663AE010FBA0FB9A68081211027FF6F8140260503B97EA0238123277D5A262C9D
:2020C000BDA1F6BD9C279DD826C996BD261396BF81112605BD9B502003BD9B479EBB7E9851
:2020E000F996BF811126F57305BE20F0812B2609BDA1F6860897BA20AD812E275A812610DD
:2021000027FF55815F2608A6805A27B47EA077A18426F9815C2719812A26F196BA8A209792
:20212000BAC1022511A601815C260B5A30010CB996BA8A1097BA30010CB90FB80CB95A27A9
:2021400049A680812E271E812327F1812C262196BA8A4097BA20E5A6848123102602E08690
:202160000197B830010CB85A2720A680812327F5815E2616A1842612A101260EA102260A72
:20218000C1042506C00430040CBA301F0CB996BA850826180AB95D2713A684802D27068183
:2021A000FE260986088A049ABA97BA5A9DD81027FF1AD7BEBD92BE96B99BB881191024FE02
:2021C000DE96BA8A8097BABDB622301FBD9BDB0FBD9DD8270D97BD813B2705BD92922002AB
:2021E0009DD29EBBE684D0BEAE01BD8DBCD6BE1026FEB17EA0C63402862B0DBA2703BD9CDC
:202200002735828680971ABD950F9F5ABDBCAE10241A96C6E6BD929496173402BD92C3350B
:2022200002BDBCC18E0097BDB3373262BD90A89F9B1F41BD8D6B3402BD8DBFA6E026133090
:2022400012AE849C9B1FA89E251F8A26E61F1410DFAFC609BD8DAADC473406C6CDBD92945D
:2022600096173402BD92C33502BDBCC1D67CCA7FD475DE763444967434028E00019F7696CE
:2022800017810227068EB089BDB3019DD881D8260E9DD296173402BD92C33502BDBCC1BDAB
:2022A000B3C83404DC763406DC743406961734029DD8BD9F5CDCD93406DC5A3406868134AB
:2022C0000297A81F41201C0FA88E00009F5A9DD82705BD950F9F5ABD8D692705C6017E8D37
:2022E000D11F14A60597173006BDB313E60430059F23961781022745D77C96A8270B8E00FA
:2023000097BDB313BDB33520139E5ABDAF1ABDB3359E23BDB3EC1F41E00A270D1F41EE0FB0
:20232000DF47AE039FD97EC63DC611BD8DBC1F1410DFAF9DD8812C26ED9DD28D8F96A827FA
:2023400008DE979E5AEF8420D39E5AEC84DD84BDBD529617810210260CEADC769E5AED84F6
:20236000DD849E23AE029F76BDBE4A20A9864F97935F9E479F9B5C9DD820029DD28D7027E5
:2023800008818F272081D626F24D26199ED9EE01260BC6170D932702C6187E8DD13003EECB
:2023A00080DF9B9FD99DD28D6727DE0D932634818127C3818226C05A27229DD227CB9E9B37
:2023C0009F473404BD950F9DD82712BD92929FD935048D0220E11F41AE0E9F473935048DAD
:2023E000F520A681BE278F81BF268C5A26FB398122260B9DD24D2704812226F70ED8DED96F
:2024000081FE26F83341A6C0840F33C6DFD920EC3404818C270E818D270A8183260BBD90BA
:20242000A05F3584BD90A320F8DED981FE26F33341A6C4840F33C6DFD99DD2C60120E33002
:202440001FA6807EA077004E65787420576974686F757420466F720053796E7461782045BC
:2024600072726F720052657475726E20576974686F757420476F737562004F7574204F66D6
:20248000204461746100496C6C6567616C2046756E6374696F6E2043616C6C004F7665724A
:2024A000666C6F77004F7574204F66204D656D6F727900556E646566696E6564204C696EE9
:2024C00065204E756D62657200537562736372697074204F7574204F662052616E67650015
:2024E0004475706C696361746520446566696E6974696F6E004469766973696F6E204279F8
:20250000205A65726F00496C6C6567616C204469726563740054797065204D69736D617499
:202520006368004F7574204F6620537472696E6720537061636500537472696E6720546FC6
:202540006F204C6F6E6700537472696E6720466F726D756C6120546F6F20436F6D706C651D
:20256000780043616E277420436F6E74696E756500556E646566696E656420557365722060
:2025800046756E6374696F6E004E6F20526573756D6500526573756D6520576974686F7596
:2025A00074204572726F7200556E7072696E7461626C65204572726F72004D697373696E5C
:2025C00067204F706572616E6400466F7220576974686F7574204E657874005748494C4538
:2025E00020776974686F75742057454E440057454E4420776974686F7574205748494C455E
:2026000000427562626C652046756C6C004261642046696C65204E756D6265720042616484
:202620002046696C65204D6F64650046696C6520416C7265616479204F70656E0044657622
:2026400069636520492F4F204572726F7200496E707574205061737420456E640042616432
:202660002046696C652044657363726970746F72004469726563742053746174656D656EBF
:202680007420496E2046696C650046696C65204E6F74204F70656E0042616420446174612B
:2026A00020496E2046696C650044657669636520496E205573650044657669636520556EFC
:2026C000617661696C61626C6500427566666572204F766572666C6F770050726F7465631E
:2026E0007465642050726F6772616D0046696C65204E6F7420466F756E640046696C652018
:20270000416C726561647920457869737473009DD2C687BD9294C6CDBD9294BD9A3A9E4BC8
:20272000270ABD8F1C1025E95B9FB4399FB496B127F99EAD9F477E8E0ABD99BC26ED5D2652
:20274000097E9663D6B12605C6147E8DD15FD7AC8182271F9DD881FE260ABD9A3A2613BDBB
:20276000905A200C4DBD9F5C9EAD9F479EB29FD90FB1399DD28DED6D842602300430019F46
:20278000D97E90A0BD950F9F979E3B9F9B96173402BD9292BD950F350291171026150A1F90
:2027A000139E9B9C3B269A9E979617810326088D131E138D0F1E13A684E6C4A7C0E7800A58
:2027C0001726F43934104FE684270CAE019C3F23069C452202EF8B359081D21027018A8DC6
:2027E0002D8D3C9EAAC60AA684AA01263ADCD9ED849DD8812827037E90A09DD2C680D71AD4
:20280000BD950F9DD8812927EEBD929220EEC6CFBD9294C680D71A8A80BD95149FAA399EF5
:2028200047300126F9C60C7E8DD18DE296173402C612AE8427F16FE2A684812810260093F2
:2028400030019FAABD928F8D49BD950FDC583406961734028D3C3406BD92C33506DDAA358C
:2028600002BDBCC13506DD5896178103272DD67CCA7FD475D7758EA87C7E93F43502DE58D3
:2028800034429DD88129271EBD92928D05BD929220B79EAADCD9DDAA9FD939BDA925DC2176
:2028A0003406860320D89DD28DE8BD928C1F41E680D7172722C103270B3302AE84BDA7A937
:2028C0001F3120EB9F91EE02AE84BDA7A99E91300420DC9FAA8DBBC6E6BD9294DCAA3406FF
:2028E000BD92C39DD8BD9F5C3506DDD99617810326108D319E21E684AE01BD97949E21BD47
:20290000991FE6E027131F41C103272CAE8432623502A7805A26F920E93502BDBCC19617C4
:2029200081032711399E769C2127F9E684BD97909E6DBD98E47E97ADAE02EEE496173402F8
:20294000D717BDA7A93502971732649E21BD991F20B0DC3D3406BD950F9F76BDBCA0AEE18C
:202960009C3D1026ECFD7E928C8D159F23DC233406C6E6BD9294BD9A02AEE1DC76ED8439B3
:202980005F9DD281FE26129ED93001A68081012629E6809FD9C10922218E0219587E8DBC60
:2029A0008DDEEC843406BD92888E0074961781032605BD98F79E769617397E92A0BD9A3A46
:2029C0009E4B399E869F4B7E8F1CBE01E73001BDCDC8BD8F518E000A9F789F7A8E00009FE3
:2029E000869DD881FE26048DD49F784D271FBD929281FE26048DC69F864D2711BD9292813F
:202A0000FE26068DB89F7A27424DBD9F5C8DB49F889E788DB0DC69938825308D1110DF3192
:202A2000BDAAA88D0ABDAB9ABD8F517E8E72864F97749E88DC788D160D742603BDAB73AEA3
:202A4000848D0BD37A250481FA25ED7E9663EE842602326239DC4BBE018010A384270A1C8F
:202A6000FEEE0227061F3120F11A0139EE0427041F3120F81F12C6068D0CAF24DC75ED84D6
:202A8000FC0186ED02394FF30184C300461093311022E332830046B30184BE01841F136FBB
:202AA000C05A26FBFF0184398E0000BF0180BF01829E3DBF01849E3320049ED930018D8E37
:202AC0003002BF018630019FD99DD2BDA3EF4D27E92AF6BDA41027F61F899ED981FF260443
:202AE0009DD220E1C09BD77426619DD2818726D79DD281CD26D19DD29ED93001E680108301
:202B0000FEF227049DD820C39F75BD9A3A967426049E4B27EFBE01802708BDAA552521BF3B
:202B20000182C606BDAA8610BE01822608BF0182BF01802005AF22BF0182109E4B10AF84E4
:202B4000BDAA6C9DD8812C27AD20B9818726089DD281CE27A1209B81D3269BC6FF5C9DD2B7
:202B600081E627F981E727F581E527F15D27A49DD82085BF0184DD75EC02DD4BBDAA5524FE
:202B800011CCFFFFED84DC75AE042706EE84EDC420F6BE0184DC75ED0239BE018026013925
:202BA000BF0184EC841083FFFF2742109E33109C88240A10A322273510AEA420F1FD0186FC
:202BC000AE04BF018227268EA4B2BD9BDBBD9C22FC0186BDB615BE018210AE0210AEA410A4
:202BE0009F47BDB60EBD9B50BE018220D3BE0184AE0220A9BD026934FF86001F8B10FF0339
:202C00001610FE0316BD9B50862A8D458D519DD227EFBDC495814727168144102700A581AD
:202C200052102700D6814D276C86078D2420D2EC6A8D3BED6A35FF34048D02350234024483
:202C40004444448D043502840F810A25028B078B307ED08E4F8D1534014D26CD3501393469
:202C600056BDD8071025E3799FD935D68DF134069DD2350627E834509ED96F048E00766FFC
:202C8000846F019DD8BD9EA79DD8269DBD9A051F101CFB35D0FC03148DD4FD03148D98BD80
:202CA0009C22BE0314A68434028D92862D8DA235048DA13401BE031435012702E7843001B4
:202CC0001F1020D6FC03148DA5FD0314C6083404BD9B50FC0314BDAC37BD9C22C608340494
:202CE000BE0314A680BF0314BDAC3DBD9C2235045A26EB35045A26D67EAC011F438EAD36B1
:202D00008D45A6C4BDAC3D862DBDAC51E6C4BDAC54E7C0A684815826E781451027FEE28DDC
:202D200026ECC4BDAC37862DBDAC51ECC4BDAC6CEDC1A68420E343434120422044505820FB
:202D400059205520504345A680BDAC51A680BDAC517E9C229ED99F5ABDA36D9DD28D5232F4
:202D6000622608BD8DBC1F1410DFAFDC473406DC5A3406DCD934069E5A9FD986BE34022026
:202D80001926538D2C26501F1410DFAF9E479F9B1F41EC03DDD9AE059F47BD92C3BDB3C89A
:202DA000260C9E9B9F4732613506DDD932647EC63D1F413004A68480812607C611BD8DBC5E
:202DC00020F3803D26109F25AE019CD91FA89E25C6071F8A26E739C6197E8DD12712BD9975
:202DE000BCC102102700A5C101277E5D1026E873BDD64A4F9777C606108E0100E7225FE72F
:202E000023A724A72696C34AA7258E05A08611A78410AF02CC0007ED048680A7079DDE4F90
:202E20008E0104E686C1202404C620E7864C91C325F14F97768E0104A6862717D676C14FCC
:202E4000260481202706BE05AABDD61796764C91C325E0BDD64ABDD67896774CF6030DF07B
:202E600003103404A1E0258C397D05DE27408D3F860F8E05A0A784CC0100ED02108EAEBB53
:202E8000B605DE48ECA6ED049DDE202B7D05DE271D8D1C86058E05A0A784CC0100ED021006
:202EA0008EAECAB605DEE6A6E7049DDE2009398607F605DE7EEB77FC05DD7EEB77AA00CCA5
:202EC000006688F0005AA03CC09668AACCEEF0FAFCFEBD99BCC10322293404BD99FD3404F4
:202EE000BD928C3504C10127052217C64C8CC64835028E05A0ED028600A7849DDEE6047EFE
:202F0000974C7E9663BDB0681CFE20398EBAE62009BDB1BA037C038B2003BDB1BA5D1027A4
:202F2000043D8E00821F894D260139D07427D6250A9774968A977C8E007450C1F82FC64FEE
:202F40006401BDB074D68B2A156301630263030D1527086304630563066307438900978C7A
:202F600096152718967B9989977B967A9988977A967999879779967899869778967799853A
:202F800097779676998497769675998397751F984D2A5725028D7A5F96752641DE76DF758E
:202FA000968C9777CB0896152712DE78DF77DE7ADF79968C977B0F8CC1402DDC0F8CC12079
:202FC0002DD64F9774977C395C088C96152708097B097A097909780977097609752AE9964E
:202FE000743404A0E0977423D98C2508088C8600978C20160C74274C067506760677961560
:20300000270806780679067A067B24048D1727E439037C0375037603779615271C0378031D
:2030200079037A037B961527109E7A30019F7A26129E7830019F78260A9E7630019F762692
:20304000020C7539C6067E8DD18E0028A603978C9615270CA607978CEE05EF06EE03EF0410
:20306000EE01EF029681A701CB082FE0968CC00827166701660266030D1527086604660549
:2030800066066607465C26EA398100000002801956AA807622F18238AA45803504F381353C
:2030A00004F38080000080317218BDB3A02E037E96638EB09A96748080340286809774BD40
:2030C000AF1A8EB09EBDB2348EB089BDAF118EB08DBDBB948EB0A2BDAF1A3504BDB330BD91
:2030E000B3C0BDBCFF8E005FBDAF1A8EB0A6BDB1BA2795BDB1DF8E00009F299F2A9615276C
:20310000149F2C9F2ED67B8D2DD67A8D29D6798D25D6788D21D6778D1DD68CF7031ED67638
:203120008D14D68CF7031DD6758D0FD68CF7031CBDB2EC7EAF971027FF0FD7E10D15274071
:2031400096893DDB2F8900D78C3402D6E196883DDB2E8900EBE08900D72F3402D6E19687DF
:203160003DDB2D8900EBE08900D72E3402D6E196863DDB2C8900EBE08900D72D3402D6E10D
:2031800096853DDB2B89000D152708EBE08900D72C2002D78C3402D6E196843DDB2A890049
:2031A000EBE08900D72B3402D6E196833DDB298900EBE08900D72A972939A601978A1F892B
:2031C0008A809783D87CD78BEC02DD8496152708EC04DD86EC06DD88A6849782D674394D2F
:2031E00027189B74464928128B8097741027FDD5968B977C39967C432004350235022B0317
:203200007EAFC27EB044BDB380270D8B0225F40F8BBDAF250C7427EB3984200000000000E9
:2032200000C60B7E8DD1BDB3808EB2195FD78BBDB30120028D8427E900748DA30C7427C315
:203240008E0029C60396152702C607D713C60196759183262A967691842624967791852679
:203260001E9615271896789186261496799187260E967A91882608967B918926021A011FA8
:20328000A859240AE7800A132B582752C6011F8A251A0D151CFE2708088909880987098624
:2032A00009850984098325D72BA520D30D151CFE27189689907B97899688927A978896877D
:2032C0009279978796869278978696859277978596849276978496839275978320B4C640F1
:2032E00020AC565656D78C8D037EAF979E299F75962B9777961527089E2C9F789E2E9F7AFF
:2033000039D617C104270CC102271BEE04DF78EE06DF7AE601D77CCA80D7750F8CE684EE31
:2033200002DF76D77439EE84DF76398E006320198E005F20149E5A96178104270C81022760
:2033400019DE78EF04DE7AEF069674A784967C8A7F9475A701DE76EF0239DE76EF843996A9
:20336000178104270C810227109E869F789E889F7A968A977C9E829F749E840F8C9F7639D9
:203380009E769F84BDBCB32B1625089E789F869E7A9F8896759783967C978A96749782392E
:2033A000D6742708D67C59C6FF250150399675808086009777D774978C977C7EAF938D0800
:2033C0004F5D2A01437E974DBDBCAE2AD3D6769E7627D920D18DF12AD30F7C4D2ACE7EBD76
:2033E000CE968A8A7F948397838E0082E68427B0E601D87C2BAED674E1842633E601CA7F08
:20340000D475E1012629D676E1022623D677E003261D0D152718D678E1042613D679E10545
:20342000260DD67AE1062607D67BE00726013956D87C7EB3A6D674276BC09896152702C014
:2034400020967C2A050381BDB0138E0074C1F82E06BDB0680F81390F81967C4906757EB0E6
:2034600074BDBCB32B50BDB3A02A07037C8D037EBDC9D674BDBCAE2B3D25069715C1B82094
:2034800002C19824318DAED78C967CD77C8080869897749677D615270686B89774967B973A
:2034A000117EAF93D775D776D77796152708D778D779D77AD77B39D663D064D76380303474
:2034C00002BDBCB32A178E000A9F84BDBD78BDBCB32A1C4F3504DD84BDBD522055240D8E75
:2034E000BAB9BDB3EC2B05BDBCD59715BDB206BDB3803504BDB3C0BDBCFF96152703BDBC3F
:20350000D5BDBD4D202C860897158C860297179DD28E00009F7C9F749F769F699F632597C1
:2035200081261027E958812D2604037D2004812B26049DD225E8812E2771BDC49581452754
:20354000348125102700838123277C81212779804426798D679DD210250095812D27068162
:203560002B27042008036A9DD2102500830D6A275B006920579ED9E601C14C2704C16C2677
:2035800016E602C1532704C17326C8E603C145273BC16526BE2035C1512704C17126B4E6ED
:2035A00002C1562727C17626AA20210364271DBDBCB3102AFF7CBDBCFF16FF764D10260743
:2035C0001F4397157EBCCD4F8DF29DD296699063976927122A09BDB2260C6926F92007BD2E
:2035E000B2060A6926F9967D2A03BDBDC90F1539D669C10A240C5858DB695880303404AB88
:20360000E08C863297697EB56720496E20008EB6088D0ADC47BD974DBDBD198D037E9BDB37
:203620000FBA8E05419F8DBDBCB3250797158D030F1539C62096BA85082702C62B3404BDFE
:20364000B3C8350234042A05BDBDC9862DBDB8679E8DC630E78096BA3504102B02145D269A
:20366000056F84301E398E00009F63BDBCB32A7DBDB8268E0541E68434048620D6BAC5203C
:2036800035042708862AC12026021F893404A780E6842714C1452710C144270CC13027EEE2
:2036A000C12C27EAC12E2606301F8630A78496BA85102706301FC65CE784840435042604E8
:2036C000301FE784394A9769BD93E88D44BD9411D6695396633404A1E02577BDB35F8E0500
:2036E000429F8DBDB84F1F98BDB903201D8D679669C602D763C6060D152702C6103404AB66
:20370000E02BC23404A1E02E054C976386014A9769BDB7A6C6FF5C301FA684813027F781D5
:203720002E27023001D7636F84D6692725862B5D2A03862D50A7019615270286FF8B45A793
:2037400084862F4CC00A24FBCB3AED026F0430049F8D8E0541394F9769D6748EBAB886FA0E
:203760000D1527058EBABD86F6E184220D34023001BDB0EE35029B6920DD8EBACA96152708
:20378000038EBAD6BDB3F62F07BDB2260C6920EA8EBAC6961527038EBACEBDB3F62EB6BD58
:2037A000B2060A6920EABDAF0CBDB4350D1527358EBA62C680BDB84B967BAB06977B967AA4
:2037C000A905977A9679A90497799678A90397788D2B28E430048D3B8CBAA826D89E799F33
:2037E00075967B97778EBAA8C6808D5F1CFE8D0D28FA8D1F8CBAAE26F13002202C9677A952
:203800000297779676A90197769675A98497755C56593930032403C00B50CB2F1F98847F24
:203820008D4553C480398EBAAE8D20862F9723DC760C23DD76A38424F8300296238D288C91
:20384000BAB826E58D059E8D6F84390A63260E862E8D149E8D301F9F580F6420120A642662
:203860001086039764862C9F239E8DA7809F8D9E23399F8DBDBCB3102A00BD96BA461025AE
:2038800001648E06039F63BDB91996B980058D738D9496B82604301F9F8D4A8D66BDB67390
:2038A0004D2708812A27041F988DBC4F8DB98E054030019F239659902490B927B4A68481E9
:2038C0002027EE812A27EA4F3402A680812D27F8812B27F4815C27F081302611A601BD95E3
:2038E00006250A3502301FA78426F820C4A6E026FC9E23301F8625A7843934028630BDB8B8
:203900006735024A2AF43996693404ABE04C97634C800324FC8B05976496BA844026029713
:2039200064393402BDB84B35024A2B0B34028630BDB867A6E026EB3996BA46102500AA8EA2
:20394000BADEBDB3F62B05BDB62020A7C60696152702C6109674976927073404BDB75635FA
:203960000496692B1C409BB93404A0E08D958D97BDB7A696698DB29669BDB84B9E8D7EB8F3
:203980009296B827014A9B692B014F34062A0A3402BDB22635024C20F4350496693404A076
:2039A000E01F89D769A6E43404ABE035042B1096B93404A0E09069BDB903BDB907201796BB
:2039C000B9BDB903BDB84F4F3404A0E09069BDB9038E00009F63BDB7A696B826049E589FC1
:2039E0008D9B697EB89ABDBCFFC60696152702C6109674340234042703BDB75696B8270196
:203A00004A9BB96FE2D6BAC4043504260153F705403404ABE0E6E4A0E434022A0A3402BD02
:203A2000B22635024C20F4A6E42B014F409BB94CBB054097630F64BDB7A63502BDB9299E37
:203A40008D96B82602301F3504A6E0270B96693404ABE090B9B005401F89BDB72D9E8D7E31
:203A6000B89DFC72815B398000005AF3107A4000FFF6E7B18D60000000E8D4A51000FFFFEE
:203A8000E8B7891800000002540BE400FFFFFFC465360000000005F5E100FFFFFFFF67699E
:203AA00080000000000F4240FE7960002710271003E80064000A0001809474240091A21562
:203AC00002F90000000091434FF8947423F7B2635FA9319FFFFCB60E1BC9BF03FFFDB60E9C
:203AE0001BC9BF0400008000000000000000BDB3808EBAE6BDB30127624D26037EAFC38E93
:203B0000006BBDB3375F968A2A10BDB4728E006B968ABDB3F6260343D611BDB3733404BD4D
:203B2000B0AA8E006BBDB0EE8D31350246240696742702037C398138AA3B0774942E4077F5
:203B40002E4F707A88026E7C2AA0E67EAAAA507F7FFFFF8180000081000000BDB3308EBB51
:203B6000368D3D9674818825037EB1F5BDB47296118B8127F434028EB089BDAF1ABDB0EB5A
:203B80008E005FBDAF118DA78EBB3A8D160F8B35027EB1DF9F8DBDB3308D058D088E005FA2
:203BA0007EB0EE9F8DBDB32B9E8DE680D77D9F8D8DEE9E8D30049F8DBDAF1A8E00630A7D0D
:203BC00026EE39BDA81FDCD934068EBC4EBD9BDBBD9C20BDBFB09FD9BDB50B9DD8350626EA
:203BE000E7DDD9200527DCBD92C3BDBC749E76BF0319860497178EB089BDB301200A8128CF
:203C000026F0BD9288BDBCE0BDB3A02B0C272ABE03199F75B6031B9777BEBC4C9F83B6BC9C
:203C20004E9785BDB0F6FC031DC3B065FD031AF6031CCB05962AFD0318FC0318978C8680AC
:203C4000DD74BE031A9F760F7C7EAF9740E64D52616E646F6D204E756D626572205365653A
:203C60006420282D333237363820746F20333237363729008D382B2C25029715BDAF0C0F96
:203C8000158D3025028D67967481901024F3B5967C34020F7CBDB435A6E02A040376037720
:203CA00086029717398D0C27FBC60D7E8DD18D0327F739961781084A4A4A2F0424021A02BB
:203CC000398104271B810227AB810327D88DDF24EF2A028D2A8E00009F789F7A860820C27C
:203CE0009617810427DA81022715810327BB86049717967427CA9678978C8EAFEC200D9E14
:203D0000769F75C690860497178EB3AD961534020F15AD843502971539C698860497174F66
:203D2000977597151A017EB3B596178102271D3262968A987C978B9682D6746E848D1D8EE0
:203D4000AF148DE5DC76938429F3DD76398EAF1D8DD7DC76D38428F28D0220F18DA19E84AC
:203D60009F2ABDB3809E2A20989E2C9F849E2A9F768DE98EB0F18DB19E8426039F76399F25
:203D80002C8D569677D6853DDDE29676D6853D4D26D7DBE225D3D7E29677D6843D4D26C974
:203DA000DBE225C5D7E296762704D68426BBDCE2DD762B050D8B2B4B3988809A7726AA962A
:203DC0008B2B15BDBCFF7EBB2FBDBCB32AF896768D3188809A7727EB3996769884978B9ED4
:203DE000769F2A9F8226033262398D1396842A08D68540508200DD84861097754F5F399694
:203E0000762A08D67740508200DD76399E841027F40F8DC5200C93842406D3841CFE200261
:203E20001A010977097659490A752AEADD8296767EBDB234028DD5DC824456BD974D96769E
:203E4000E6E020BD8EB3E1BDBD29D684967698842B0BD0762607D685D07727AF567EB3A62A
:203E60008EBED4BDAF1A96748177259FBDB3808EBED8D68ABDB22DBDB380BDB4720F8B96C3
:203E800082D674BDAF148EBEDCBDAF11967C34022A09BDAF0C967C2B05031CBDBB2F8EBEEA
:203EA000DCBDAF1AA6E02A03BDBB2F8EBEE07EBB94BDB3300F1C8DAE8E006BBDB3378E0019
:203EC0005FBDB3010F7C961C8D068E006B7EB234340220C781490FDB83490FDB7F000000DF
:203EE00004861ED7BA879926648723345886A55DE083490FDA967C34022A028D229674342B
:203F000002818125058EB0898DC38EBF238D9F3502818125068EBED4BDAF11A6E02A037E8E
:203F2000BB2F3908783BD74A7B846E027C2FC1FE7D9A31747D5A3D847E917FC87E4CBBE496
:203F40007FAAAA6C81000000C6FFBD9294C6A6BD92948D1E8D5A0FBF9DD8BD94FD2570BD35
:203F6000950F9F5ABDBCA58E043C4FBD979D7E91B3C65FF70599BDA81F813B2604971D9D41
:203F8000D28123260BBDCE90BD9292BDD0FD9DD881222610BD9242BD9BF39DD8813B102663
:203FA000D2F09DD2F605992706BDD92F7E9C2039BDD8071025D02AC6360DC027F27E8DD14E
:203FC000C63ABDD0ED26F6961B27079E519F477E92A08EC155BD9BDB9E4F9FD9399DD2BD46
:203FE000BF714FBDD0ED2B048DC6862C8E043CA78420039E53864F971B9F554FBDD0ED261D
:20400000089F709ED99F728680976F966F971A9DD8BD94FD25B9BD950F9F5A9ED9966F27A1
:2040200026E684C02826205CBDC0F481222609BDC0F4812227F220F7812827EB812926E86C
:204040005A26E59DD29ED99F4B9E55A684270D0D1B271E813A261A9DD27EC10E961B1026CF
:2040600000ACBDD0ED27782B05BDBFB02003BD024E9FD9BDBCB3262D4F5FBDD0CA7D02D99B
:20408000260F9DD29ED91F8981222705301FCC3A2CBD979FBD99F4966F2705BD98F72037FC
:2040A000BD91B320329ED99F769DD29ED9BF05969E769FD99617340281082605BDB5062026
:2040C00003BDB50B3502BDBCC19ED9BC0596270F966F2603BDB3359DD82707812C27037E20
:2040E000BFC09ED99F559E4B9FD99DD82744BD92927EC00B9DD281FE260E9ED93001A6807B
:20410000840F30869FD9A6844D1027D193399FD9BD90A86D80260CC604EE811027CCB2EC2D
:2041200081DD51A680812027FA301F818326DF7EC0719E55966F80802613D61B2604A6846B
:20414000269D9E729FD99E709F557EC0090FBFD61B27029F53393F5265646F2046726F6D3B
:204160002053746172740D0A00BD027BBDCDC60F5F3004108E043DA680260139D65F812291
:204180002604C801D75F813A2614C5012610C4FDD75FA684818F27DF818D27DB863A4D2A87
:2041A000065D27078C86218D5F20CC81832602CA02818D2704818C2602CA04D75F81FE2654
:2041C00016A68034028101275F8102275F81F227428104274A2048CE01E581FF2604A6809E
:2041E0003345847F334A6DC427BBA0C42AF6ABC4EE414A2B066DC02AFC20F7A6C4847F8DB3
:20420000076DC02AF67EC177108C053C2404A7A06FA439EC813430BD974DBDBD19201B9725
:2042200017BDB301308620100F762004A680977686029717A68097773430BDB62035403529
:2042400020350434400F640F69A680812027FA8DB7812E26040C64200A814527048144262B
:20426000020C69A68026E80D6926180D64260CC1F22710C104260486212006C1082604861D
:20428000238D8535107EC177300120029ED9BD0275CE033C0F610F620FE70FE8A680271EAA
:2042A0000D61270CBDC4902415BD950624100F618120270A9760812227420D622719A7C02C
:2042C0002706813A27CE20D46FC06FC01F3083033A8E033B9FD9394D2A070DBF26BE7E92E5
:2042E000A0813F260486B920D581272613CC3A8DEDC10F60A68027C6916027C2A7C020F407
:2043000081262611A7C0A68027B4812027F6BD950624F1208BBD95062404812E263C301EA2
:204320009FD93440BDB50B3540D617C10226208E00760D76260330015A86FEA7C0E7C0BD1F
:2043400085979ED9A61F81201027FF727EC29C9675847F97758E007420DF813A1027FF5E76
:20436000813B1027FF58301F108EC6ED4F3412A680BDC495A0A4AAE4A7E4A6A0812E26EF1B
:20438000E6A0A6E02616108CC6F6352022098687A7C0E7C07EC5081F987EC4573510108C66
:2043A000C73026C83450A680BDC4902424CEC407A1C12604A65F20061183C41926F23262A8
:2043C0003540A7C0812C26069CE71027013A7EC29C1F89C04158CE8D2333C510AEC42739FE
:2043E000EEA4A6A42733AEE4A680BDC495A0C027F781802704312320E732623540A6222BB8
:20440000428B80C6FF20492BD92DDA2ADB2FDC5EDD5CE43EE53DE63CE70F5FCE01EF86E888
:204420009760334AE6C4274010AE41AEE4A6808D64A0A027F88180264A326235409A60D6A6
:204440005F260D818F2610C63AE7C0A7C07EC508E7C0A7C07EC29CA7C0818326040C62201E
:20446000F3818C263B7EC2F2CE01F4035F270486AB20AD3550A680A7C08D1525D70361A7A0
:204480005F20D10C605A279A313FA6A02AFC209B8D037E94FD81612506817A220288203902
:2044A00081872642A68081202604A7C020F6301FEC818DE11E898DDD1E891083544F2604DC
:2044C00086CD2013108353552608A6808DC7814227037E92A086CEA7C0202D9D889A9E8BE6
:2044E000999C8AA1D60081BB102700B081F0102700AA81D32775108EC4DBA1A0270A6DA461
:2045000026F8BD029F7EC29C8D1EA68026037EC2BE81202604A7C020F1812C27BA812D26A6
:204520000486DA20B27EC2A0A68081202604A7C020F6BD9506240A812E2703301F39A7C0A9
:2045400039301F9FD99DD8BD916286FEA7C086F2A7C0DC4BEDC19ED9A684812E2604862077
:20456000A7C0A61F81202602301F398D085D27028DB67EC29C5FA68081202604A7C020F6B7
:20458000813D260586E65C20F3813E260486E520F5813C260486E720ED301F3934109FD949
:2045A0009DD88122270535107EC5080F6935109FD9A68027188122260AA68027F6812226AE
:2045C000F820EE812C260B0D6926E69FE79ED97EC29C812826040C6920D7812926D30A6947
:2045E00020CFBD027E9DD21F89589DD2C15423046E9F02013404C1382525C1482434BD923A
:204600008FA6E4813E242BBD92C3BD9292BDBCA53502DE763442BD99BC350234062013BDEE
:204620009288BD0278E6E4C10A2507C1162203BDBCE03504BE01F73AAD947EBCAEBD02639F
:20464000BDDB59B6059A2703BDD3C210DFAF9ED99F4FA6802707813A27207E92A0EC8127FB
:204660007AEC80DD479FD996A9270F865BBD9C279647BDB615865DBD9C279DD28D0220BD3F
:20468000260139813A26089DD2818D26CD868C81801025CB0081CB220DBE01F2481F893AF8
:2046A000AE849DD26E8481FF270881E723AC6E9F01FC9DD2819E1027D707819B10273B97AF
:2046C00081A61027F91781A910271B1881AA10271BBF81A0102724737E0266D6475C27081F
:2046E000C6130DB11026C6E91CFE7E8FE4474F2ECD474F532ECE522E884C2EBB432EBA5203
:2047000045542E8B4C4F2EAB53412EAA534B2EA94D452EAC524E444D2EBD4C4F432EA34378
:204720004F4C2EB54D2EA8434F4E532EA5572EA09E33EC8427383304A6C081FE2608E6C01D
:20474000C40F33C520F24D26EFEF84AE8420E3BD028A34109E8B8C053F35101022D1E33988
:20476000813A240A812026020ED2803080D0392706BD9A02BF02176E9F0217273B812C26B5
:2047800008DC45933F1F012005BD95DB9E7634109E459DD8270DBD9292BD9A02301FBC057E
:2047A0009D22181F10A3E125121F03830046250B93352507DF3F9F457E8F517E8DC63404C0
:2047C000BD99BCE1E01022CE9A39272481E62721F601E5812C2704C60F8DE334049DD8276C
:2047E0000ABD9292C6078DD6F701E63502B701E5399DD2BD928FC6078DC43404BD9292C669
:204800000F8DBB3404BD928C35068EFD385D26014FA78539F6030E8D46F6030FF0030E5CB9
:204820008D3DF603108D38F605AD8D33E6E02702C6FFF705ADE6E42702C602E7E4F6030D8F
:20484000E0E4E0622316E1612512E6E0F70310E661F7030EEBE15AF7030F20607E96633427
:20486000049DD82710812C2709BD99BCE7E49DD82703BD9292354434046EC42734D6C381F6
:204880002C270BBD99BCC1282704C15026CE34049DD8270EBD99FDC1142704C11926BDF7A6
:2048A000030D3504860EC12827028638B70311D7C34FB70310F6030D5AFD030ECE01028608
:2048C00001F601E6EDC496C3F6030DED42B6030EF6030FF0030E5CED44B60310C601ED469B
:2048E000B605ADA7488EC8EA0EDE10000100000BBDDF30BDE0199DD82711BD9292C601BD85
:20490000C7BEB605A8445449B705A896C6D6C87EDA6DBD9A3AB601E74C1026CD469E4BBF3F
:2049200001E739BDD9DE4F7E974CBD99BF5D2703BDD15396BF3402D7BFBDD0FABDD0CA3581
:204940000297BFD6CF20E0BE05AABDD39C9FCFD6CF20D43402343CEC66EF66CA80340234B9
:20496000044F1F8BB6FD0485022612C640F7FD05F703137FFD05F6FD04C50227F94425559B
:204980008680B7FD058E0004301F26FCB6FC808A80B7FC80B6FC81F6FC818480B7FC817F89
:2049A000FD05C5102706BE02BCBDD48AC5202706BE02BEBDD48AC54027073404BDE453351D
:2049C00004C40F2710BE05B1260CBE02BA86055A3D3ABDD48A3B6E849DD8BD9A3ABD8F1C97
:2049E000301F24037E90843943415330CA06CAB6CB02CB1ECB4DC9FACA025F7D02D12601EC
:204A00005339F602D1397D02D0102600A13402BDEC0535028110275B8E02DD6D8010270221
:204A2000DBFE02B0FF02CCC608BDCCACFC02DBEDC1B602D4A7C0C6096FC05A26FBC614F757
:204A400002CF7F02CEC6C2F7FD00C617B6FD0085012702C6258EFFFF301F26FC5A26F6BD60
:204A6000D794BDD7728602B702D0B602D4B702D64F2031BDCB5726398DF6EC08FD02DBA6C4
:204A80000AB702D4B702D68D047C02D039BE02B0BF02CCBDD6D826197D02CE27142B0EB6BA
:204AA00002CF27E9B702D1BE02B0BF02D239C63B8CC6357E8DD181202623B602D127028DC2
:204AC00075C6FF8D73BDD76FC603B6FD0085012702C6058EFFFF301F26FC5A26F6BDD7722A
:204AE0007F02D0399DD28602BDCC3CB602E681021026CB6FBDCA738DE77D02CE2BDF8D8D00
:204B000020F77D02D1260303C039BE02D2A680BF02D27A02D126F23402BDCA8D3582F60260
:204B2000D15C260634028D0E3502BE02D2A780BF02D27C02D139C601F702CEBE02B0BF0281
:204B4000CCF602D1F702CFBDD7947ECA707302D9CC01008E00003996474CB702D88ECC160C
:204B60008D337F02D6BE02B0BF02CCBDD6D8262E7D02CE26EDBDD7728E02DD6D80270EFE6F
:204B800002B0C608A680A1C026155A26F78ECC248D148ECC217D02D82603BD9BDB4F398EF9
:204BA000CC2C8D0220B78DED7D02D826F0BE02B0C6087E9BF6BDCC349DD82712BD929227F0
:204BC00004804C27037E92A043B705AC9DD2B602E6102B365B810210261FBC7D02D010268E
:204BE000FECCBD9B504FB702DDBDCB591026FEC18DBB8D20E684C10A24028D184FBDB615BC
:204C00008D12BE02B08642AB09BDD08EBDCA78BDCAF720CE7E9C220D0A5365617263686971
:204C20006E670D0A00466F756E643A2000536B69703A2000C6FF215FB601EB215F3404BDE5
:204C40000299B702E68E02DD6F80CC2008A7805A26FB9DD83504276C5D2704812C2765BD69
:204C600098F1C1022517863AA1012659A6818030252A810922268A80B702E6C002CE02E7B1
:204C80005D271CA6848128261630015A276EA6808129270AA7C0118302ED23EF205E5A6F01
:204CA000C4C1082257CE02DDE7C02718A680A7C0274A8128274681292742813A273E4C27A1
:204CC0003B5A26E839C10525B4A10426B03414C60FF702E6FE02B2F602E658EEC52715AE5D
:204CE00061C604A6C0A180260B5A26F735143005C00520897A02E62ADB7ECF0AC6377E8DA8
:204D0000D18122261F8D07271BBD92922016BDCC37C611D7BF7F02DB7F02DC7F02D40ED8CC
:204D20009DD22663BD9F0B3410BDCDC67302DC7302D40DBF2703BDCEDF35507E9ED1814D46
:204D4000102700C08DC810270085BD9292814127CFC650BD9294262FBDCEDF8D149C352761
:204D600045A68490748D128D179B75A7808D2720ECCC0B0DDD749E3339CEBF23D674200528
:204D8000CEBEE0D675A8C539C611D7BFC603F702E67F02E7208ECC0B0D0A74260297740AEC
:204DA0007526E4D7753986FE8D2C8DC59C3527D7A68490758DCA8DC19B74A7808DD820EC16
:204DC0009E47300126C10DD127BDC63E7E8DD18DF5BDCEDF86FF9E33BDD08EB601E7BDD0AC
:204DE0008EB601E88CA680BDD08E9C3526F7205BBD9292BD9A02EEE4AFE41F358D00BDD043
:204E00008E1E89399DD2BDCD0E8DE58DE3AC621025C8508DDB9DD8270235B68602B702DBD3
:204E2000BDCEDF4F8DD8EC62A364C300011F028DCBEC648DC7AE64A6808DC3313F26F88682
:204E4000FF8DBB4F5F8DB535368DB1D6BF0FBFBE02B4A6852736102B33E534148430B7020B
:204E6000DAE685C40FBE02B258AE85AD980635146F8539270C8D198DD29DD8270F8D0E20BE
:204E8000F6C61134048DC635045A2AF739BD92929DD8812326029DD2BD99BCC1102204D75C
:204EA000BF26E9C6327E8DD1BD92C3BD994B34048DDBBE02B46D85263EBD9292BDCC379DF5
:204EC000D8265DCC01FFFD02DBF702D435048D110FBF7C02D42748BDCADD2018C6498CC6A1
:204EE0004F7D02E6102B33548610C149270E8620C14F2708C6338CC6347E8DD1B702DABED6
:204F000002B2F602E658AE852605C63C7E8DD1AD9804B602DABA02E6BE02B4D6BFA7853980
:204F200035848602B702F02018CC00FFF702F0201481B91027FBAD804DB702F026029DD241
:204F40004F5FFD02F1B702EEF702EFBDCC377D02F026119DD82720BD9292812C2706BD9AF0
:204F600002BF02F19DD8270FBD9292C652BD929426AD8603B702EEB602E62B0B810227076E
:204F8000BDEBB4102632A6F602F02709F602EE542503BDCE81C611D7BFBDCEDC7D02F010CE
:204FA00027008DFC02DB27205D2606BDCE4B7ECEF4B602E6810226057D02D427EE7D02EF5C
:204FC0002603BD8F397E8E887D02EF26DEBD8F397302F38D524C97D18D4DB701E78D48B798
:204FE00001E89E339F35DC35BD8DAEBDD0720DC026069E35A78020EC0DD12703BDCDAAC61A
:20500000036D8226035A26F99E359F356F805A2AF9BDCE4BBD8F4BBDC7307702EE7702EEFA
:205020001025F6197E8E728D490DC027447ECAB1FC02DB5D1026FF73810226F88DE934027C
:205040008D291F028D25F302F1FD02171F01A6E0270BBDCE4B7D02EE27177EC7778DC8A7BA
:2050600084A18026C8313F26F420D18D008DB81E893934740FC0BE02B4D6BFE685102B3119
:20508000C4C40F58BE02B2AE85AD980835F43476D6BF260DF605AC2708BE05AABDD617A601
:2050A000E4BE02B4D6BF3AE684C430C1102608E684C40FC1002611E684102B3185C40FBE4B
:2050C00002B258AE85AD980A35F63416D6BF7F02D9BE02B4E685102B316EC40F58BE02B288
:2050E000AE85AD980C9FCFDDCD0DD035963414BE02B4D6BFE685C48F359486208C86103498
:2051000016BE02B496BF2710C639A6861027BCC18430A1E41026FDDC3596860E8C8610349D
:20512000028D2DBE02B46D85102B311F96BF3402D7BF8DC9350297BFE685C40F58BE02B2B6
:20514000AE85A6E4AD963502801027011D7E974DBD99BF5AC10F1022FD495C39C624BD925C
:2051600094BD928FBD99BC96BF34060FBF9DD881292703BDCE8DBD928CBDD0FDE661BD97ED
:20518000926C616A61270ABDD072BDBFB7A78020F2350697BF7E99421F89A88815A788152E
:2051A000C1202603BDD4F7EE88177ED238318812A5231026F8F8EE25E6278E02E7A68027AB
:2051C000406FE2814627066CE48153263CE680C03727055A2633C606A680814F270CCB02C6
:2051E00081452706CB02814E261FA680803127044A26165CA68426118ED250E685EAE05C55
:205200005CA6232707E12827147E96636F416F416F418640A741121212E741E728B602DAC3
:205220001F89AA23A723C12026066FA46F2A20086F296F246F2B6F2C4D26058640A741398F
:205240005F85202702CA2385102702CA06E7413958D878F848C85CDC7CFC4CCC318812EE14
:2052600025810D26156FA48D36E628C5042645B605DC26406F2A860F2025812025215F81F1
:205280007F230553819F23176CA4E82A2711E628C504260B3402632A860FAB2A8D018C34DD
:2052A000028D073502A7C47ED678B603132605A6414424F6393188121CEFBDD6781A10E684
:2052C0002CE12B27F3A6242A0B8880A724C63D1CEF7E8DD127076F241CEF7ECAB1302DA6F8
:2052E0008534025CC47FE72CE12B260CBDD426A60227056F027A059A1CEF35824F1F8BB67D
:20530000FD03840D8508271185042709850127013BBD05E23BBD05DF3BBD029CCE02C0AE41
:20532000C127713188123440EE25E6413540C50227EDA6B8053406BDD426BDD48AE62B5C6F
:20534000C47FE12C3506274DC438C5282719C410863F3406A623EE25BDD238CA10E7413578
:2053600006EA24E7242022EA24E724E628C4042618847F810F2603E7293B53810E27F88116
:20538000202506E62927028A80302DE62BA7855CC47FE72B3BC680EA24E7243B860EE6885E
:2053A00014AE8812395F1A10A6881DA1881E2601531CEF391A10E6881DE0881E2AF3CB80DC
:2053C00020EF96B1261B96474C2716BE02B6C612A6022708A6012604EE03260630055A2608
:2053E000EF39BC02B626067E025DBE02B6C604BD8DAA63016F027A059A109ED9DFD9DE4782
:20540000C6CE34747EC64B81B11026BD279DD28D2234108D08BDC9D83540AF4339C6878DA6
:2054200002C6CE7E9294E631C03086053DBE02B8308539BD928FC604BDC7BE3404BD928C00
:20544000350420E681A2261134149ED9E61FC1B1260535147E90A035148DD8CE92A09DD838
:2054600081D5260D6F84A60227056F027A059A0ED28197260BA7846F019DD232627EC64BFC
:20548000818E2604A7010ED21F35A6842709A602260563027C059A397F059ABE02B61F134B
:2054A000C65A6F805A26FB4FBDDC568ED4B00EDE1000D4B6000500003D0108F705AE3BF666
:2054C00005AE7F05AEC0062509588ED50E6E957305AC3973059C39B605A888027EDBE1BE98
:2054E00002C0EE8817862AA741B605BD8D094A2AFBA688157ED2383402108E3BFCB6FD00BF
:2055000085012704108E61A4313F26FC3582D4CFD4D3D4D7ADF0D4DFCE02E7A680A7C05A0B
:2055200026F93986107EDBDD86107EDBD8BD0284BDCE818ED608C605F7059B8DDBF7059C63
:20554000F705AE9DD82733BD98F1C1052527A6048046270780021026C10943B7059CC106F8
:205560002511A605814E270B81411026C0F58620BDDBD8C6045D27028D9E8DA78604B70294
:20558000E6860197BF8620BDCEFC0CBF8610BDCEFCBDDAE46FE28ED4BBBF05B1CC03E0BD69
:2055A000DC56BDD678BDD4BFB6FD052B140FBFBDDB6D270D7D059C2703BDD08E0CBFBDD0A5
:2055C0008EC6028D1E0D7727D9BDD072E6E46CE48ED60D586E95811B27C86FE40FBFBDD028
:2055E0008E20BFD7BF861034027ED123813D20E8802097C620AC802097C80FC50FC7BDE095
:2056000019BDC90B6FE4209A53384E3200D5D6D5ECD5F0D5F620338D403188128120250A11
:20562000A6A44CA12125014FA7A439E603C030CE01E36DC52704A1C5270F318812810A2718
:2056400004810D26026FA48D10393410BE05AA860D8DD8860A8DD4359034108ED6709DDEB5
:2056600024048D1420F5B701008ED6729DDE359017000E0001000001BD028D7D031327C988
:205680004F5FB705AC1F8BFD031210DEAFBD8F82BDEC05BDDB440FBF0F15BDD772B602F3A0
:2056A0002703BD8F398D0E8ED6AC7E8E630D0A41626F7274007D059B278FCC0000FD05B1C0
:2056C000B705ACB7059BBDDC568617BDDBE10CBFBDCE4BC6027ECE4DBDD76FBE02CCC605AA
:2056E0008D4E4326F95A26F88D4681FF27FA4A26ED8D3D813C26E78D3CB702CE8D37B702C3
:20570000CF1F89BB02CEA7E25D270F8D28A784A1802610ABE4A7E45A26F18D19A0E4270553
:2057200086018C8602B702D5BDD7DDB602D535848D0C25FC398D07250139A6E120E53434AF
:20574000BDD6788E05A08603A7849DDEA6021A016D0126021CFE35B43403B602D74335053D
:2057600027119DD2C1972707C1D527067E92A086FF214FB702D7270386FF8C860034148E6D
:2057800005A0C601E784A7029DDE359486FF8D535A26FB39B602D734028DD4F601E9A6E0A0
:2057A0002B03F601EA8DE586018D38863C8D34BE02CCB602CE8D2CB602CF8D271F89BB022E
:2057C000CE34025D270BA6808D19ABE4A7E45A26F5A6E0C6058C86FF8D095A26F97D02D615
:2057E0002690393436BDD6788E05A08602A784A6E4A7029DDE35B6BDDAA67305A9260E73C1
:2058000005A9CEDA092017BDDAA67F05A9B605B72603BDD93DBDDAF67F05B7CEDA01BDD913
:20582000F47F03139DDEBDDAEFFC03122608B6043D27134A26D7BDEC054F5FB705A9FD0366
:2058400012BD9B504339EC04830004220E2607B605A9270720AC4F5FB705A9C3044034068C
:205860008E0441CE043DACE4221AA680811F2308817F270481FE250286201183053C27E630
:20588000A7C020E232621183043C2306A6C2812027F4B605A9270C8E043C9FD99DD2250673
:2058A0007F05A9BD9B476F418E043C393262BD9F62BD8F1C1025B7CCBDCDC6DC4BB301E7E1
:2058C0001024B5AEBDC1699E4B9FA6BDDA30860CBDDA368D5D8D6DBDD9DE34068E043D8D08
:2058E0002EBDD9DE3406EC62B705B7BDDA6DBDD7F73411BDD9DEE1642E0E2D04A1632C08D9
:20590000EC63BDDA6DBD9B50351132647E8E8EC6FF96BF2610BDDA30A6802706BDDA365A85
:2059200026F67EDA64A68027058D165A26F739BDDA308611BDDA36B601E57EDA628DF08666
:20594000057ED08EBD9ECC7E9C22969D275632629E9E9F4B8DD9BD8F1C24208DE7BDD80A74
:2059600025196D012715DC9ED3A0250481F923020F9DDD9E30019FD97E8EB50F9D7E8E72CF
:205980005343524ED99ED9A4DB54D9D9D992CEF4CEF48D4AD6C31F01860EF6031139812005
:2059A0001026F550398DF7BE05AAB602E781572605CC8870200781532606CC5038ED8813D9
:2059C0007D02E727104FF602E8C14627054CC14E2603B705BF4F7ED6178D557EDA623450EF
:2059E000CEDA118D0F860AB701B79DDEFC01B8FD030B35D08E05A0C607A6C5A7855A2AF9FF
:205A0000391200043D000001041300043D00000104110001B50003000510000100000400B8
:205A2000803456CEDA198DCCCC0003FD010135D68DEF7F01033934148E0103E684C17C258B
:205A400017E61ECA80E71E8D1BC604F705A58E0103C664E71F5FE71E5CE7847C05A5A7858A
:205A600035948DD234108E05A09DDE3590FD030B8DBE86128DC0B6030B8DBBB6030C20E239
:205A80009DD82706C603BDC7BE865F8D94860DFD0102B601E6B70104B601E5B70105860682
:205AA000B705A520BF39BD02600FC0BDD0ED272E32628E043DBDD0720DC0261D810D260E7C
:205AC0003402BDD0ED35022A10BDD072200B812025E3A7808C053C25DC6F848E043C3934AF
:205AE000065F20043406C6018601BDDBD53586F605A8C4FE2003F605A8860CFD01B73410B7
:205B00008EDB079DDE3590100001B500054B594244DB1FDB25DB54D9D9D992CEF4CEF48195
:205B2000101026F3CF390C000D00270CBD99BC5D27125A270A7E96630FBF86077ED08E8E69
:205B4000DB2620038EDB280EDE8DF48E7A12301F26FC20F08D1727FC39BD0290FC03122602
:205B60000139BDEC054F5FFD03127E8FD78E05A08615A784CC01B5ED029DDEB601B627031D
:205B8000B601B5398DE727079777C6017E99360F7E7E994281BB267D9DD2BDD92F5F1A40EA
:205BA0008D308650BDD08E8646BDD08E5C34044FBDB615BDD9DE8608BDDA6D86028D1EE6C6
:205BC000E48D3886028D113504C10A25D3BDDAEF1CBF7E9B505D2705BA05A8200443B40520
:205BE000A8B705A8BDDA211F89860CFD010286047EDAA01100010000040014862BFD01024A
:205C00008EDBF39DDEBDDA307F01048610B7010386147EDAA081282658BDDCB1340434049E
:205C2000CC00016AE42B04584920F834069DD835108197260A1F10BA05AFFA05B0200E812A
:205C4000D5260C1F104353B405AFF405B08D0735068D747ED45BFD05AFBDDA21862CB70117
:205C600002FC05AFFD010386057EDAA08D577ED45BBD99BC5AC1091022B9E85C3404BD9271
:205C800092BD98F1CE01053502C10F2302C60FED5E8CA7C0A6805A2AF9BDDA21862AB70156
:205CA0000286147EDAA081B226259DD28D177ED411BD928FBD99BC5AC1091022B9A5340480
:205CC000BD928C35848DEA86053DBE02BA3A3981CB26089DD2BE02BE7ED4119ED9EE801144
:205CE00083FFA9260A9FD99DD2BE02BC7ED4111183FF9B1026F7107E02548602B701817F04
:205D000001809DD8BDE0368E00C5C608CE0106BD8597FF01829DD881DA2628B60181811E74
:205D20002710BDE0477C01818E00C9FE0182C60420DD9ED9BF0182BDE0479DD881DA27F720
:205D40007C01809DD82709BD92922704812C2608F601E520067E92A0BDE4BEF701039DD839
:205D6000272BBD9292C605BDDEE425E9F701049DD226E28D207D018027174FC601FD0180A8
:205D8000BE01829FD98E017AC6047EDD0C8D0320E4397F01048616B70102B60181B7010574
:205DA000C6043DCB067EDF137F0104BDE05BBD9292BD98F1C1502302C650CE010CE7C05DCD
:205DC0002703BD8597BD99FDF70106BD99FDF701079DD82709BD92922704812C2605F6019D
:205DE000E52003BDE4BEF701039DD82709BD92922704812C26035F2009BD99BCC10310222A
:205E0000B861F701059DD8270FBD9292BDDEE2251FF701049DD226188619B701028E00C5CA
:205E2000CE0108C604BD8597F6010CCB0D7EDF137E92A07F0182CC0183FD0180BDE05BBD68
:205E40009292BD928F170082BD92928D7DBD928C7C0182B60182810A22D69DD82605F6018F
:205E6000E5200ABD9292812827D8BDE4BEF701039DD826BC8E0100861FA702B60182A70418
:205E8000DCC5ED05DCC7ED07C609BDDF27FC0312262FF60182583404CE01838E0103EC8186
:205EA000DD7686029717A6C03450BDBCC13550ECC1DD5A3450BDB33535506AE426E0326137
:205EC000394F5FFD0312437E8FE10F1ABD950F961781031027DDD2FE0180A7C0AFC1FF01A1
:205EE0008039C6068EEAF0A18027065A26F91A01391F1083EAF11CFE394D260D96C6D6C840
:205F0000ED8496CAD6CCED0239C6081F138E00C57E85978610B705A04FFD05A4CC0100FD48
:205F200005A28E05A00EDE8680B705A7861120E5BD99F9108E00C5C1C825057C01B3C6C774
:205F40004FED22DC4B1083028025067C01B3CC027FEDA4397F01998E019A3410BDE4BBB69D
:205F600001994C8108102EB337B701993510E78034109DD826E63590BDE05B8E0100861BDB
:205F8000A702DCC5ED03ED07DCC7ED05ED098601F601E6ED0BC60D8D8EF601042A035F2057
:205FA00002C6FF7EB3C04FF601E520058601F601E6B701A5D7FB0FC2BD928FBDDF309DD856
:205FC0007D01A5262D812C2629BD9292812C270F8129271EBDE4BED7FB9DD8812C2613BD53
:205FE0009292C605BDDEE42504C1022C2316B6739DD2BD928C8E0100CC1701ED02DCC5ED7F
:2060000004DCC7ED0696FBD6C2ED08C60A7EDF13D7C220DCCE00C98D03CE00C5D6C35A4FF7
:2060200010A3C42402EDC4F6030DF003105A10A3422402ED42397F01B39EEB9FC59EED9FE2
:20604000C781DA27028D14C6DABD9294BD928FBD99F9108E00C9BDDF372006BD928FBDDFCA
:20606000307E928C81FF1027DEDE8128270981DA2705C640BD92948DBD9EC99FEB9ECB9F55
:20608000EDBD9292C605BDDEE4244B81D71027B5D28601B701A4BD98F15D2702E684D7FC77
:2060A000BDE014D7C2F601E5D7FB9DD8270EBD92922709812C2726BDE4BED7FB9DD8273333
:2060C000BD9292C642BD929426188601B7010DB601A4263E20257F01A49DD220C6BD92920C
:2060E00020E1C646BD92948602B7010DB601A4262120087F010DB601A4261786158E010248
:20610000A78096FBD6C2ED818601BDDEF9C60E7EDF1396FC97C2862020E38124273EBDE324
:206120004DB602F4C60A3DFB02F5DD76C63CDD84BDBD78B602F6C60A3DFB02F7D376DD7674
:20614000CC003CDD84BDBD71BDB380B602F8C60A3DFB02F9DD76BDBCFF7EBD4D9DD2BDE3E6
:206160004DC608BD9792CE02F4C63A8D0E8D037E99428D00A6C08A30A780398D008DF3E7D5
:2061800080399DD2C608BD9792CE02FAC62F20DB812427EEB602FCC60A3DFB02FD2736D7C0
:2061A000138EE1D8B602FEC60A3DFB02FFCEEB8089000A1326F8BDE2DA261A3406B602FC22
:2061C000C60A3DFB02FDC102350627091083003B2303C300017E974D1F1C1F1E1F1E1F1F7D
:2061E0001E1F1E1F9DD28197274981D52751818E27578124270220578E02F4CE0180C606EF
:20620000BD8597CE02F4BDE3148D031600DB34408D19C117220E8D13C13B22088D0DC13B2E
:20622000220235C0354035067EE2CFA6C0C60A3DEBC039BDE36DF60104CA018D46200ABD82
:20624000E36DF60104C4FE8D3ABE02BC7ED45B8E01A6CE0180C606BD85978D168DB0CC3D2F
:2062600004FD0102CE01A68E010917008CC60D7EDF13CE01A63440BD98F1C108102400AA51
:2062800016B3E0F70104CC3D01FD0102C6057EDF138E02FACE0180C606BD8597CE02FAFFCD
:2062A00001B18D6EA642C60A3DEB432722C10C221E8EE1D7A685C10226058D1E26014C3407
:2062C00002A644C60A3DEB452705E1E02201398E0180C606BD85977EE3273406B602FAC65E
:2062E0000A3DFB02FBC4033586CC3D02FD01028E01058D05C6097EDF13CC0003A703D7130A
:20630000A641A784A6C1C60A3DEB84E7800A1326EF399DD23440C624BD9294C6E6BD929477
:20632000BD98F1C10824037E9663EEE48D048D0435C08D0230018D00A680FF01B1BD95064B
:2063400025E58030FE01B1A7C0FF01B139CE02F4FF01B120008D20F601BA8D39EDC4F60121
:20636000BB8D32ED42F601BC8D2BED4439863EB70102C6037EDF27863EB701B7C615F705CA
:20638000A78611B705A0CC01B5FD05A2CC0003FD05A416FB8D34044FDD76C60ADD84BDBEA4
:2063A0000C9677B701A2CC000ADD84BDBD7835044F9376B601A2FE01B1398197274D81D58C
:2063C000277B818E10270080BD92BEBD9A058C00001027B28EBF01A24F5FFD01ACFD01AE83
:2063E000B601A3C6323DFD01AEB601A2C6323DF301ADFD01ADCC3D10FD0102C6048E01AC6A
:20640000CE0111BD8597C6157EDF13BDE36DF601043404C6048E0111CE01ACBD8597CC3D71
:2064200009FD01023504CA02F70104C6048E01ACCE010DBD8597C611BDDF13200BBDE36DDA
:20644000F60104C4FDBDE283BE02BE7ED45BC6087EE2838E02F36F016F02EC0B5CE70CC117
:206460000A25056F0C4CA70BC60A3DEB0C3404A609C60A3DEB0ACEE1D7A6C5C1022606BDE5
:20648000E2DA26014CA1E024316F0B8601A70CA60A4CA70A810A25046F0A6C09C10C251AE8
:2064A0006F098601A70AEC075CE708C10A250B6F084CA707810A25026F0739BD9292BD99EA
:2064C000BCC1101024B19C39F601E5D7FB7F0199814026029DD2BDE05B9DD8271ABD9292C7
:2064E0002715812C270E8DD6D7FB9DD82709812C1026ADACBDDF54108E0100F60199E7283A
:2065000027098E019ACE0109BD859796FBA727DCC7ED25DCC5ED238618A722C6117EDF13FE
:2065200000000001FEC51919FB1631F2F4FB4A51EC8461F9E1C778AED4DC8E3BC5E5A269E1
:20654000B506B506CE00F78E027FAFC48E00C7AF42397F01800FC27F01A4F601E5D7FB8ECE
:2065600000739FF5814026029DD28DD8BDE05BCE00C5AEC49FEFAE429FF1BD9292BD92BE5E
:20658000BD9A05CE00F3AFC49DD8270EBD92922709812C2705BDE4BED7FB9DD8271ABD92A1
:2065A000922715812C2711BD92BEBDBCE096748B089774BD9A059FF5C601D7FDBDE7A33414
:2065C00006BDE7A3DDFE9DD8272CBD92922727812C2713814E270B81461026ACC3C6FFF78C
:2065E00001809DD22710BD9292C605BDDEE41025ACAED7C29DD2350634069EC99FC59ECB09
:206600009FC7CEE5228401270350CB08585833C53440BDE6A33540335E3410BDE6A3352026
:20662000A6E484032706810327021E129FC91F21DCF5BDE6B11F204D1026B027D7CB1F30E8
:2066400097CCA6E48102250E8106240ADCEF93C924114F5F200DDCEFD3C925051093F7255B
:2066600002DCF7DDC9A6E48104250BDCF193CB2412CC0000200DDCF1D3CB25051093F925B0
:2066800002DCF9DDCB0DFD26028D50350604FD25051093FE270C5CC10826044C5F84077E2F
:2066A000E5F8399EF3ECC427078300018D031F213934766F64A6633DED66EC613DEB66894E
:2066C00000ED65E6E4A6633DE365ED6524026C64A6E4E6623DE364ED6435F67D01802603CF
:2066E0007EE0F38E0001CEFFFFDCC993C52B05BF01852007FF0185DCC593C9C30001FD0111
:2067000081FD018BDCCB93C72B05BF01872007FF0187DCC793CBC30001FD01834F5FFD0157
:2067200089DCC5FD0195DCC7FD01978D4BFC0189F30183FD0189B30181231BFD0189F60117
:2067400098FB0188F70198FC0189B3018125158D27FC018920E0260CFD0189F60198FB011A
:2067600088F70198FC0195F30185FD0195BE018B301FBF018B26B439C6088E00C5CE018DEF
:20678000BD8597DCEFDDC5DCF1DDC7FC0195DDC9FC0197DDCBBDE0F3C6088E018DCE00C5C1
:2067A0007E85975F9DD8271BBD929227F65F812C2711BD92BEBDBCE096748B069774BD9985
:2067C000BFC43F1F98C40744444439DCCB93C72408405082001CFB1A0139DCC993C520EFBA
:2067E0008601971ABD950F26030F1A397E9663814010261A3EC607F701998E019AF101E650
:206800002702E7805A2AF65F2008814010261A26C601D7FDB601E597FB9DD25F814126032E
:206820005C9DD2F701A5BDE0367D01B326BEBD92928DAD1F10EE8133CBDFF5E680583A9FE6
:20684000F3BDBCB327A60FF80DFD261F9DD8275003F8BD9292C647BD92949DD827427D01E2
:20686000A52605BDDF5420387E92A09DD82731BD9292BDDEE2240C7D01A526ECBDE4BED78A
:20688000FB201D7D01A52706C1011027ADD503F8D7C29DD2270A7D01A526CDBDE4BBD7FB7D
:2068A0000DF82603BDE014BDE7DA24099EC99FC5C30001DDC9BDE7CB24099ECB9FC7C300EB
:2068C00001DDCB96FD1027008A4F5FDD74DD76DCC993C5C30001DD78DCCB93C7C30001DDB1
:2068E0007A96F8274F9679D67B3DDD769678D67B3DD375DD759679D67A3DD375DD75240298
:206900000C749678D67A3DD374DD7496778407C60304740675067606775A26F54D27069EEA
:206920007630019F76B601A5271ADC765849D376DD7620109679D67B3DDD76B601A52704C8
