:200000000F0F0F0F0F0F0F0F0F0F0F0F0F0F0F0F0F0F0F0F0F0F0F0F0F0F0F0F0F0F0F0F00
:200020000F0F0F0F0F0F0F0F0F0F0F0F0F0F0F0F0F0F0F0F0F0F0F0F0F0F0F0F0F0F0F0FE0
:200040000606060606060606060606060606060606060606060606060606060606060606E0
:200060000606060606060606060606060606060606060606060606060606060606060606C0
:200080000707070505050507050505050505050505050505050507070505050707070707AA
:2000A0000505050505050505050505050505050505050505050505050505050505050505A0
:2000C000050505050505050505050505050505050505050505050505050505050505050580
:2000E000050505050505050505050505050505050505050505050505050505050505050560
:2001000003030303030303030303030303030303030303030303030303030303030303037F
:2001200003030303030303030303030303030303030303030303030303030303030303035F
:2001400003030303030303030303030303030303030303030303030303030303030303033F
:2001600003030303030303030303030303030303030303030303030303030303030303031F
:200180000303030303030303030303030303030303030303030303030303030303030303FF
:2001A0000303030303030303030303030303030303030303030303030303030303030303DF
:2001C0000303030303030303030303030303030303030303030303030303030303030303BF
:2001E000030303030303030303030303030303030F0F0F0F0F0F0F0F0F0F0F0F0F0F0F03EB
:00000001FF
