:2000000086D01F8BCC00008ED000ED818CD36025F98ED3609F059F078607972EFCD40086B8
:20002000FF970310CED000BDE1CB8623BDEDCB7FD3811CAF10CED0007FD382BDEE07BDE182
:20004000333402BDEE01BDE12A35020F00F6E0768EE077A1842504A101230830045A26F38A
:200060007EE0EDA08448AE02AE86AD8420C6B5D40286FF97003B04010DE0871520E0A12994
:200080002CE0B93D3FE0C1E14EE24BE5E1E5E0EC46ECF5ED72ECF4ED71ECECEDBCEDC8E2CF
:2000A00041EE98F0C4F412FA8AF103F21BF286F446F3B6F589F67DEE72FD5CFE02FE46FEF3
:2000C00061FE7CFEA4FF6F0050190019000100863C8C863D8C863E8C863F8C86408C86415B
:2000E0008C86428C86438C86448C86458C8646B7D3807EE06C34028680BAD381B7D3818D9C
:2001000032816426107FD380867FB4D381B7D3817FD382358210CED0003402BDEDE87EE049
:200120004634028D0E816426EC8C3402B6D381970120D2B6D380847FB7D3807DD40AB6D361
:20014000822607B6D3802BEB20F4B7D40A390F22BDEDEFCED380A643972F5F8E0001A6447D
:20016000815027088128265EC60830019736D7319F395F8E0280A645811927098114264681
:20018000C6028E03209737D7329F3B9F95E648D73827024A4A97439742A1462329A646979E
:2001A0003D9740AB479143221D973E97410F3F963797446D472B0FA64A270286FF9723A697
:2001C0004927177EE25E863CB7D3808EE0C7108ED383C608BDE44A7EE14EBDEE0ECED03DEB
:2001E0005F5CA6C0A1C027F9974D9745D74FE65FD74EBDE9758D037EEDE80F468D02201CEF
:200200008D089F47109F49395F8CDC453404D6363DEBE089C01F01318907D0398D05DD4BED
:20022000395F8CDC453402963A3D3406A662D63C3DE3E4EDE4A662D63B3D1E89E3E43263B4
:20024000390F22BDEDEFF6D38520070F22BDEDEFD62EB6D3832641D72EB6D384972F8E007F
:2002600000CE40000023B7D408BDE2F4B5D4080023963FD644DD7DBDE331BDE1DACED03D06
:20028000A6C1BDE208A6A48A80A7A41183D045220625ED335F20E93981031022FE31D72E10
:2002A000488ED03B3086E684E1011027FE2144974FEC844D2604D14327A4DD7DDD4D9745B5
:2002C000BDE1F28D60964DBDE208A6A48A80A7A47EE1FC967EBDE2211F03834000230ECE65
:2002E000400034068D078E000035402007967DBDE2211F019623271F2B0B8604D62EC50843
:20030000261D4F201A3089800033C980004FD62EC50827544C2051962E85082602962F8D39
:20032000478D452043B7D40800238DA70023B5D408967EBDE20834203384967DBDE20834EF
:20034000204F8D04962E35503102300634301F891F013184363611A3E424F911A3622506A8
:200360002702EDC3EDC335A64434528600240143B5D4098DD3B7D40935523089400033C95F
:200380004000399E64109E628C02802404108C00C8398040201008040201B5D4094FE5C476
:2003A00027014CE5C9400027028B02E5C9800027028B04B7D409393406C6083DC3D8001F73
:2003C000013586DC58BDE20C9F5A109F5CDC58BDE225DD5E3991362402D143393432EC6125
:2003E0008D121E0286503D338BCCE3921E02E6A535B21F018D051E01C4073944564456444D
:2004000056398ED383108ED069C6088D3D8D0BDC6D93691F01DC6F936B39CED069AEC410F2
:20042000AE428D1EAE4410AE468D17ACC42406ECC4AFC4ED4410AC422407EC4210AF42ED54
:200440004639BDE38825FA7EE0D8A680A7A05A26F9397FD0A0DC608EF0B0CED08C8D12DC83
:20046000608EF07ECED0798D08DC608EE4ADCED083C1012602962F58583AC67E8D028D00FF
:20048000E7C0443406EC842502EC02EDC135869E64109E62BDE3DC34049D83E6E433C9405D
:2004A000009D86E6E433C940009D893584E4C1E4CDE4C1E4CDE4C1E4CCE4CCE4CDE4DAE430
:2004C000CCB5D40912EAC4E7C4B7D4093953B5D40912E4C4E7C4B7D40939B5D40912E8C41F
:2004E000E7C4B7D409393416DD958EE5D0D6313A108ED0978603C67EE7A05F64E459646126
:200500005958EE85EFA14A26ED3596445657445657445657445657399E5E8C9E4B3384BD1D
:20052000E3B79623270EC5082605CC0004200DCC04002008962FC50827021E8934508407D5
:20054000C40710939527028D9D96312719CED083EFE4C6083404A6808DB1E7488DADE7C0D0
:200560006AE426F2326196232616EEE4AE62CC00089D97EEE4AE6230894000CC00089D9ABD
:20058000EEE4AE6230898000CC00089D9D35D04334148D063514300121439730B5D409A632
:2005A000C09830A7843088505A26F4B7D40996302143B5D409DB322708A7843088505A26CD
:2005C000F8B7D409394334148DE83514300120E2E5B2E59AE599E5B1E5C6E590E58FE5C572
:2005E000864F97A18ED3849FA20FA0BDE745243D0DA11026033A96218510272E96A0272A86
:2006000096042726C61B9E05E18027084A271BBDFD9520F4BDFD9E9600260F960427F8E62E
:200620009FD005C11B2703BDFD767EEDE8D621C5022721812024193402BDEDEF3502811B37
:20064000102701B7811424128EE90848AD96209B817F27978D220F1E2091801C2B8D340246
:20066000BDE77E3502488EECE4AD96BDE787BDE1FC0F227EE5EB86203416A79FD0479E49C0
:20068000D62E6D842A0CCA800D222706BDE6E4D62E8CE784BDE51BBDE7BA86FF97223596E3
:2006A0000F22BDE77E7EEAECB5D40339964FBDE2A00F223997A00F46962185202703BDE78A
:2006C000DE0F227EE1FC964D97450F4620F3BDE7452535843F972E8D0B9E49A6848A80A764
:2006E000840F223934069E49A684843FA784912E270C96232608962EA780E6842AFA3586C6
:200700008D4325041F898D3D1025F9C91E89BDE3D51024F9C09746D7458ED03D4F4CE181DD
:2007200025FBE11F24F7974FEC1EDD4DBDE97520908D1225D31F898D0C25CD5D2706BDE6A2
:20074000785A26FA393410B6D383260896012B111A0135909EA2A6809FA27AD3831CFE3577
:2007600090BDE1218ED3849FA220DC9E49A6842B0A8D0BBDEA608D0FBDE1FC0F22398ED025
:2007800045108ED05820078ED058108ED045C6087EE44ABDE67696468D0327F739D621C5AC
:2007A0000427154D27121F8954545484078EE392A6868ED024A585394C390C4696469136B6
:2007C00024169E4730019F479E4930019F49DC39D34BDD4B397EE1FC0F4696212BF70C4575
:2007E0009645914E25EF964F81012742962185082706B5D403BDFD6E7EE6ACBDE745252BED
:2008000081392605BDFD9E20228123260686FF97022018812226040F02201081672606868B
:20082000FF97032006816826020F037EE5EB964ED64E5CDD7D91442632D64D3401262E965B
:20084000382711DC7DC30202DD7DBDE2D3DC7D830202DD7DBDE2D3DC1FD33BB5D409DD1FF9
:20086000FDD40EB7D409BDEE0E205134014A914D276A964EBDE2211F01964DBDE2211F0265
:20088000D33B1F03B5D4099623262034101F31EC898000EDA98000EC894000EDA94000EC81
:2008A00081EDA1ACE425E83262200E3089800031A9800033C980008D38B7D409964DBDE2E0
:2008C000083430964EBDE2083540342031C4D63633C58D1D3530D63633A58D15DC7D4A5ACD
:2008E0009745DD7D35012703BDE2D3BDE3317EE2C534103716EDA4AF223716ED24AF2631A3
:200900002811A3E425ED3590E6ABE6ABE6ABE6ABE6ABE6A0E6ABE6A8E76BE793E6BEE6C6AA
:20092000E6ACE6B4E6ABE6ABE6ABE6CEE700E7310F22BDEDE89E54A68484BFA7809C5625C5
:20094000F6BDE3C38601971DBDEE07BDFD6E3402BDEDED3502D6001026F6D9817F2605BD62
:20096000EBE820DD81202505BDE98A20D4488EECACAD9620CC964EBDE2089F52109F569604
:200980004DBDE2089F50109F54399E5A109E5CE6A4C5102704B5D403390D332635A784CA57
:2009A00040E7A4BDE518BDEA442414964F4A260FBDE82E03A60F46DC45DD587EE1FC39BDB3
:2009C000E3C3E6A42A03B5D4039E589C4523EF7EE7870FA631216D8027086DA02AF8B5D47E
:2009E00003399E5834109E5A109E5C1F03A684E6A4C47F34061F308DA4BDE3C335064D269B
:200A0000EA3506DD580DA6273B914D27040A5820330F59390C59965991362D020F59390A13
:200A2000592A0596364A9759390A589658914D2C05964E4A9758390C589658914E2D049642
:200A40004D9758390C59965991362D110F590C589658914E2D07964D97581A01391CFE3982
:200A60000A592AF996364A97590A589658914D2CEC964E4A97581A01391F10935020041FDE
:200A80002093549E4D9F5893352B040C5820F8D335D75939109E548680C610A5A42704E552
:200AA000A4270A3121109C5625F1109E548DD039BDEA44BDE3C320DFBDEA60BDE3C3CC805C
:200AC00010A5A42704E5A427E4313F109C5424F120D8964FBDE2A0DC45DD5886027EEC42D3
:200AE00003332604B7D40D39B5D40D39DC5834069E5A109E5CE6A4CA40E7A4A68427084FBF
:200B0000A784E6A4BDE518BDEA44BDE3C3E6A42AEA9C472307ECE4DD45BDE1FC3506DD5871
:200B2000399636D658D14D272C40214FD63334060F338620E6E427049E5AA685BDE98ABD31
:200B4000E3C39659BDE79D26089E5CE684C59027E13506D733390FA59E5A109E5C8D1625D4
:200B6000FC8D1224FC301F9C522507964D97580F59397EEA790DA5260F8D1130013121C62F
:200B800080E5A427020CA539326220DBA684CEEBD2E6C0A1C12507A15F23065A26F51CFE09
:200BA000391A01390FA5BDEA60BDE3C38D0B24FC8D0725FC31227EEA7F0DA5260FC680E5D1
:200BC000A427020CA58DC5301F313F393262312120E4043039415A617A80FF399E5CA684A4
:200BE0002BF9BDEA60BDE3C386FF9702DC5834069E5A109E5CE6A4C5102705B5D40320376B
:200C0000E621C5802625A601A7846DA42A02CA80E7A0109C4926073406BDE7873506BDE5F9
:200C200018BDEA44BDE3C3A68426D54FE6A4CA40E7A4A784BDE5180F023506DD5839860195
:200C4000214F973432629634B7D383109E54C640A6A42A0233A4E5A02609109C5625F17F4E
:200C6000D38439313FE6A4C4BFE7A0E6A42AF831C430C9F8303430BDEA793530CED384868A
:200C800003A7C08612A7C0DC581E89EDC13121A68027141183D4002509BDE0F57FD384CEE3
:200CA000D385A7C07CD384E6A02AE439E989E989EBA4EC3EE989EAECEB56E6A8EBDCEB2B44
:200CC000E989EA94EAD2EC41E989E989E989EB21EAE0E989E989E989E989E989EC3EEAB809
:200CE000EAB0E989EA14EA1FEA29EA37DC451E89FDD38339864F97A08D29CED3836FC08DB7
:200D00005396A02704A6A48D06A6848D0220F01183D4002508BDE0F5CED3836FC07CD3832D
:200D2000A7C039FCD383BDE3D5240A97A2D7A1FCD385BDE3D51024F39991A2240597A2B699
:200D4000D38397A4D1A12405D7A1F6D384D7A3D6A2D7A539DCA1DDA891A32210BDE20CDC0C
:200D6000A15CD1A423034CD6A5DDA13932627EE27D864F97A08DACCED387ECC1DDA68DD4EE
:200D800096A0260396A68C8D1C1F898D18A784E7A43406DCA8BDE225AEE4EFE41E01BDE5D8
:200DA0001D354020D90AA72A1096012ABFBDE121CED383A6C097A720ECA6C0398ED3831017
:200DC0008ED024C60A7EE44AB6D3839721850127128D15961C4425068606971D0F1E8601DB
:200DE000971C398D080F1C398D177EE77E8D12961E270DA69FD05AE69FD05CBDE5180F1EF9
:200E000039961C8A802004961C847F971C3996382720860FD63127028607976C962F976DE5
:200E20000F2F8ED2C096434C8D0996438D05D66DD72F39BDE2211F03C605D7698D160A69A9
:200E400026FA394F5F345630C4BDE51DEC64D339ED6435D63410E6802B03C60D8CC60B96F8
:200E60006C976BA6808DDE0A6B26F8351030881020D1CED380A646E648BDE3D52407A64A17
:200E8000E64CBDE3D51024F2496F456F476F496F4B86FFB7D0A0200EFCD3838407C10524BF
:200EA00023DD60BDE452CED3853730BDE4429F71109F733730BDE442B6D38D260A9F751089
:200EC0009F7720567EE0DB4A262D9F75BED3879F778D47BED3859F75BED38B9F778D3BBEB8
:200EE000D3899F71BED38B9F738D2FBED3899F75BED3879F7720239F75109F779674D6786B
:200F0000D0742403509678977497785C34048D0A0C740C786AE426F635848E0001CEFFFF41
:200F2000DC7593712B049FA72006DFA7DC719375C30001DDA3DDADDC7793732B049FA92028
:200F400006DFA9DC739377C30001DDA596A0260E9EA3301F27749EA5301F10270088CC00B2
:200F600000DDABDC71DD64DC73DD62BDEFA0DCABD3A5DDAB93A3230FDDABD663DBAAD76312
:200F8000BDEFA0DCAB20ED2608DDABD663DBAAD763DC64D3A7DD649EAD301F9FAD26CC39B7
:200FA00096A02723D66596633406BDE20C3506BDE2253406B6D384A784E6A4C480FAD38309
:200FC000E7A435107EE51D7EE48F9E71109E7396A92A03109E77BDE3DC30C4BDE4973388AC
:200FE000500AA626F4399E71DE7596A72A021E139FA7DFA996A884078EE392E686585A9654
:20100000AA8407A6864A433406DCA7BDE3FB3404DCA9BDE3FBE0E02607E6E0E4E07EF05AF3
:20102000D7ADE6E0C1FF2705BDF05A0AADE6E02B0DBDF05D9EA730089FA70AAD2BA7109EBA
:20104000739EA7BDE3DCD6AD9D8C33C94000D6AD9D8F33C94000D6AD0E929EA98C9EA7103E
:201060009E733404BDE3DC30C431E45F9D7930C940005F9D7C30C980005F9D7F3584F631A8
:20108000F647F631F647F631F657F657F647F65EF6574F8C86FFB5D40912A7C55A2AFBB76A
:2010A000D40939B5D4091263C55A2AFBB7D40939F094F092F094F092F094F0A2F0A2F092CC
:2010C000F0A3F0A2FCD383C1052432DD60BDE452CED385A6C081012327811E22234A373060
:2010E000BDE4429F71109F733730BDE4429F75109F773472BDEF1A35724A26E7397EE0DB7B
:201100007EE0DEFCD3830FACC10522F1260303AC5FBDE46BB6D38544CCD0648ED062108EBA
:20112000D388CED38A24041E011E233476CED3854FE6412704DDA8E6421027EFADDDAAE643
:20114000C4C403C1022502C80134045F64E4240693A8DDA8C6FE5CDDA44F5F64E024069338
:20116000AADDAAC6FE5CDDA68ED38D9FADB6D38C260235F6A69FD0ADBDE3B7108ED0B8C6F4
:2011800008A6800DAC270143A7A05A26F4FCD388DD64FCD38ADD62BDE383250235F6868097
:2011A00097B3AEF806AFF8028ED0B89FB4BDE383240896B3A59FD0B4260ADCAAAE62E3849A
:2011C000ED842034B6D38797B7B6D38697B6BDE48FAEE4EC84D3A4ED84BDE38324040AB66B
:2011E00026ECECF804EDF4AE62EC84D3A6ED84BDE383240D0AB726D19EB430018CD0C026D9
:20120000AAAE64EC84D3A8ED84EDF404B326937AD38C9EAD30019FAD7EF16DBDE402D7AAC4
:201220008ED0A08607A7864A2AFBF6D38B2751C108224D108ED38CD7A8ECA18407C407E73D
:20124000860AA826F40F619E69109E6B96AA4C97A9BDE3DC8ED0A0BDE39AA6869760345481
:20126000BDE46935543454BDE497355433C8500AA926E49E699C6D270630019F6920C839F3
:201280007EE0E47EE0E4BDF2CBF6D38B27F5C10822F18ED38CCED0CB8D530FB3BDF3FC96CA
:2012A000BC97C0108ED0E5DEC7BDFC86E7A033410AC026F5BDF3259EC73088509FC70ABF93
:2012C00026DD0DC4270496E38D3E39BDE40230019FBD5CD7BFDC69BDE3F29FB9D7BBDC6D66
:2012E000BDE3F21F1093B95CD7BC0FC439D7AFDFB034048D0C8D0A8D0830016AE426F43506
:20130000846484561DA7C0393414F6D3839EC2C17C2507BDE0F55F8ED384A7805CF7D3834B
:201320009FC235143996C490BB97CA81042F06800897CA200881FC2C048B0897CA0DCA2B56
:201340001796CA97C0272896BC97C18ED0E566800AC12AFA0AC020ED96CA97C08ED0E59647
:20136000BC308697C169820AC12AFA0CC026ED8ED0E596CA9BBB81072F0230014D2A02305E
:201380001FCEE39296C4E6C6585A1F98A484A78453D4E3EA84E784DCBDDBC489001F12BD97
:2013A000E3F2D7C41F105D2708A6A0BDF3085A20F6A6A497E339BDF2CB8D419EC730848DA9
:2013C0000E9EC7308940008D069EC73089800096BF97C99FC5108ED0E5D6BCB5D409BDE43F
:2013E0004AB7D409BDF3259EC53088500AC926E30DC4270796E3BDF3080FC4397FD3838E54
:20140000D3849FC2966CC6503D9EB9308B9FC70FC439B6D383272881142225CED384373078
:20142000BDE4423706C105241ADD6034409F64109F62BDE469BDE48F35407AD38326DF3906
:201440007EE0DE7EE0DBBDF4A6FCD38BC1051022EC898EF48EBDE46E96A34C97BDBDF50D42
:2014600096A894BE97BEDEAB96A9A4C9D0BEA7C9D0BEDEA430C49D8330C940009D8630C9DB
:2014800080009D8933C850DFA40ABD26D039F62BF641F62BF641F62BF640F640F641F65820
:2014A000F640F62BF641BDE4029FA0DDA29E69109E6BBDE3DCDFA4D66AC407D7A6CEE39253
:2014C000A6C54AABC597A8D66EC407D7A7A6C54A4397A9D6A15CC407D7AADC69BDE3F234B9
:2014E00010DC6DBDE3F21F10A3E1DDAB0FAD0FAE0FAF0FB0B6D38C8105260203B023037EB6
:20150000E0DBB6D38D97B38ED38E9FB13996B497BEDCA093AE2B15BDE3FB8ED0BE96AF2779
:201520000230018D48A7805A2AF997B496A690AD271F2B0F8ED0BED6AC66805A2AFB4A2648
:20154000F3200E8ED0BED6AC5C69855A2AFB4C26F596AD9BAA840797AD40840797AF39BD3E
:20156000E1218ED3849FB1B6D38397B38C341096B3260796012BE84F20089EB1A6809FB1B2
:201580000AB30DB02701433590BDF4A6B6D38C8103260403A803A98EF66E48AE869FBBDE8A
:2015A000A48D0EDEA433C940008D06DEA433C980000FAD0FAF96A34C97BDBDF50DD6AC8E7B
:2015C000D0BEB5D409AD9FD0BBB7D40933C8500ABD26E73996A894BE97BE96A9A485A785AF
:2015E000398DF196A843A4C4AA84A78496A943A4C5AA85A785A685A7C55A2AF93996A89A87
:20160000BE97BE96A9AA85A785A685A4C5A7C55A2AF7398DBFA685AAC5A7C55A2AF7398DD6
:20162000B3A685A8C5A7C55A2AF739D6AC108ED0BEB5D409A6A5AA85A7855A2AF7B7D4094A
:2016400039D6AC108ED0BEB5D409A6A543A485A7855A2AF6B7D40939D6AC108ED0BEB5D4B0
:2016600009A6A5A885A7855A2AF7B7D40939F5E1E0DBF613F5FDF61FF5E17EE0DEB6D384B5
:2016800027F8810A22F497AE97AFBED38510BED387BDE4429FA49FA0109FA6109FA286FF31
:2016A00097B097B1868097B2CC0001DDAB8ED0EA9FB38ED3839FB50FBEB6D383840797A981
:2016C0008ED0B704A9561DA7808CD0BA26F58ED0C3BDF880BDF8EC9EA41F10C4072705D747
:2016E000AABDF81AD6ACD7AA8ED0C3BDF94DDCB0DDC096B297C2BDFD6ED600264397A88159
:201700000D27158120254F80302705810922E78C860A97AC97AA20DE9EA4109EA6DEB5AF86
:20172000C110AFC1DFB58ED0C3109EB3A680A7A08CD0EA26F7109FB30CBE0AAE26B820069A
:201740008ED0C3BDFA289EB38CD0EA23083088D9BDFA2820F3390DBE260A34028ED0C3BDFC
:20176000FA2835020FBE81022605BDF83F201C81062605BDF7FC2013810B2605BDF7CF2076
:201780000A80192B06488EF79AAD968ED0C3BDF880BDF8ECBDF94D7EF6F6F7A8F7B5F7B471
:2017A000F805F84AF7E0F7ECDCA68300142A03CC00C7DDA639CC00C793A6108300142509FA
:2017C000DCA6C30014DDA62005CC0000DDA6399EA09FA49EA29FA6DCC0DDB096C297B23977
:2017E000DCA693AB2A03CC00C7DDA639DCA6D3AB108300C72F03CC0000DDA639CC0014D7E2
:20180000AAD3A42004DCA4D3ABDDA41083027F2F09CC0000DDA4C6012013D6AA8ED0B0A63D
:201820000281FF270804B006B106B2200A86FF97B097B1868097B25A26E5D6ACD7AA39C6E0
:2018400014D7AADCA48300142004DCA493ABDDA42A09CC027FDDA4C6012013D6AA8ED0B0F0
:20186000A6028180270808B209B109B0200A860197B086FF97B197B25A26E5D6ACD7AA39B4
:201880003410860197AD9EA4109EA6BDE3DCD7BAAEE4EF849EA41F10BDE3FB1F03AEE411C0
:2018A000830000260686FFA70220046F020CAD1183004F260686FFA70320046F030CAD1060
:2018C0008C000425068604A70420041F20E704A6049BAD97ADCC00C793A6E705C1042504EE
:2018E000C604E705E605DBADD7AD35903410EE8430068D1CAEE4EE8430881133C940008D4B
:201900000FAEE4EE8430881C33C980008D023590B5D409DFBC10AE62A624C6503D3406DC90
:20192000BCA3E11F03A624AB25E6C4E78033C8504A2AF6DEBCA62281FF2704E65FE780A686
:201940002381FF2704E641E784B7D40939341010AEE4EEA40DB727048D2C20028D7410AE59
:20196000E4EEA433C940000DB827048D1920028D6110AEE4EEA433C980000DB927048D06DB
:2019800020028D4E3590B5D409DFBCE62496BA5D270A33C8B0AAC4A7C45A20F1DEBCE625DC
:2019A00096BA5D270A33C850AAC4A7C45A20F1DEBC8ED0B06D222606A684AA5FA75FA60177
:2019C000AAC4A7C46D232606A602AA41A741B7D40939B5D409DFBC96BA4397BBE6245D278A
:2019E0000C96BB33C8B0A4C4A7C45A20F1DEBCE6255D270C96BB33C850A4C4A7C45A20F192
:201A0000DEBC8ED0B0E6225D2607A68443A45FA75FA60143A4C4A7C4E6235D2607A60243DB
:201A2000A441A741B7D409393410EE8430068D1CAEE4EE8430881133C940008D0FAEE4EE52
:201A40008430881C33C980008D023590B5D409DFBC10AE62A624C6503D3406DCBCA3E11F7F
:201A600003A624AB254CE680E7C433C8504A26F6DEBCA62281FF2704E680E75FA62381FFB9
:201A80002704E680E741B7D40939B6D3875FDD60BDE4528ED2BF9FCD8ED380EC07C10810E9
:201AA00022E6475CA7083008CED394BDF2EDBED38310BED385BDE4429FC2109FC0D6C186B9
:201AC000503DDDC6BDFCC29FBE9EC2BDFCC79CBE2601399FC286FF97BD8604BDFC3003BDF7
:201AE000D6C186503DDDC69EC23001DCBEBDFCCC9CBE102C00F6331FDFC2BDFB6C9CBE2CC0
:201B0000219FB93001DCBEBDFCCC9CBE2C10DCC23406301F9FC24FBDFC3035109FC29EB9A9
:201B20009FBEBDFC579EBE301F9FB9BDFCC29CB92611301FDCC2BDFCDD9CC2102D00AD3033
:201B40000120419FB9DCCADDC69EBE3001DCB9BDFCCC9CB92C2C9FB9BDFB6C9FBE8604BD0E
:201B6000FC309EB9301F9FC203BD20B69F71DCC0DD73DD77BDFCC23410301F9F75BDEF1A64
:201B800035909EB99FBEBDFC579EC230019FB9BDFCC79CB9260F3001DCBEBDFCCC9CBE2EF1
:201BA0004B301F203B9FB9DCCADDC69EC2301FDCB9BDFCDD9CB92F269FB99F75DCC0DD73B3
:201BC000DD77BDFCC79FC230019F71BDEF1A8608BDFC309EB930019FBE03BD7EFB229EB9BB
:201BE0009FC2D6C5D7C19CBE102DFEF4DECD1183D2BF2601390FBDA6C02A0203BD98BD34F1
:201C00000284CF5F44594459C1032502C6FFD7C2E6C0DDBEA6C097C3A6C097C1DFCD3502EB
:201C200084304444448EFC2A6E96FAE0FB22FB8697BBDECD1183D0CF271C96C1A7C296C368
:201C4000A7C296BFA7C296BE9ABBD6C25449544998BDA7C2DFCD39DEC03341D6C196BD261D
:201C6000045A335E215CC1C8250532627EFBEC86503DDDC8DDC6DFC48650D6C13DDDCA39C4
:201C8000DEC696CC33C6B5D40912E6C98000D7B8E6C94000A6C4B7D409DDB60FB496AF9EBD
:201CA000B0D6B6E880D7B5D6B7E880DAB5D7B5D6B8E880DAB553DAB4D7B44A26E4D8B3D73D
:201CC000B439CE01002012CEFF00201ECE01FFC30008BDE3FBC1502F13C650200FCEFFFF73
:201CE000830008BDE3FBC1FF2C02C6FFDFB2D7BC8CFFFF2F3F8C02802C311F10C407340452
:201D00001F10BDE3FBD7CCBDFC8035048EE392E68596B22B03585A8C5A53D4B4D7B4261FBD
:201D200096CCD6B22B094C91BC2D0D8E0280394A91BC2E048EFFFF3997CCBDFC8027E186B1
:201D400008D6CC3D1F01D6B496B22B0758250B300120F9301F5424FB30083939B6D38385A9
:201D60000627028D3974D3838D06FDD383391A012404860097021A40D604260A2414D600B1
:201D800026101CBF20F00A049E05A6808D079F05C6011CBF398CD38026038ED360391A40DC
:201DA0000F048ED3609F059F071CBF393456FCD4002B0A960326028DE58D2B20263404BD3C
:201DC000FE3D3504A6802B19271934029603260634108DCA3510E6808D0C6AE426F8350268
:201DE0008CD70935563B960226179604812024110C04DE07E7C01183D3802603CED360DFE0
:201E000007391A40F6D3832728C10A2224B6D384810F221D8D271F8958688456E780C60F6E
:201E20008D124D2752CED385E6C0E7804A26F920467EE0E734106F805A26FB35905858587B
:201E4000588ED2B03A39CED383E6C027E4C10A22E08DEAE680C47F8610E7C0E6804A26F9D9
:201E6000391A40FCD3838ED2C06884445666843088108CD36025F21CBF7EEE0E030A8ED38C
:201E800083108ED00BEC81442402E7A43121C604442408EE84EFA4EE02EF22300431245A6F
:201EA00026EE200E030A8ED00B108ED384C611BDE44A030A27081A408D0E1CBF0F0A3996BF
:201EC0000A26028D030F0A3B961C271B2B190A1D2615A69FD05AE69FD05C031E2702C80818
:201EE000BDE5188614971D108E00008ED010CEFF6BC6046C82A684A1C0250E6F845A26F3BA
:201F0000960B8508270331A840960B8501270F9E0C9C1026099E0E9C12260331A810DC1610
:201F2000C3FFFFDD1625089E14301F9F14201F261DDC142619DC18DD14DC1ADD16960B8567
:201F400002270B31A820850427048802970BB6D381D609270484F00F093420EA61270A34D0
:201F600002EAE0F7D381B5D40435A0323C3C188ED38BA68080902B0B270C4A27184A27079A
:201F80004A27087EE0ED39AE8420E7EE813410ADC4351020DD10AE81EE81EC8127D434104B
:201FA0001F01A6A0A7C0301F26F8351020C497BD9BC0BD9C07FC0186BDB5A3BE018210AE18
:201FC0000210AEA4109F47BDB59CBD9B35BE018220D3BE0184AE0220A9BD026934FF86003B
:201FE0001F8B10FF031610FE0316BD9B35862A8DE000E000E000FDACE06EE000FEBFE0000A
:00000001FF
