:2000000000000000000000007040701A7A0E0A0A7040701274081422704070427408142212
:20002000704070407E040404E080E08CF212120D20507052541814127048704C740404072C
:200040007048704F74070107505070505E0404044040404E780C080850507050511B151148
:20006000384040380808080E3840403E090E0A09704070107C12120C704070107E04040EAA
:200080007048487E080E080E70484A760202070070484E7106080F0070484F7107010F0010
:2000A00070484A760A1F0200486858490A0C0A0970407010790D0B097040704E790E090E4D
:2000C00038404038090D0B0970407040711B15117040701C721C121C704070407E10100EF0
:2000E0000008047E040800000010207E2010000000081C2A08080800000808082A1C0800C0
:2001000000000000000000000808080800000800242424000000000024247E247E2424009B
:20012000081E281C0A3C08000062640810264600304848304A443A000408100000000000E9
:2001400004081010100804002010080808102000082A1C3E1C2A08000008083E08080000A7
:2001600000000000080810000000007E000000000000000000181800000204081020400033
:200180003C42465A62423C000818280808083E003C42021C20407E003C42020C02423C003D
:2001A000040C14247E0404007E407C0202423C001C20407C42423C007F4204081010100000
:2001C0003C42423C42423C003C42423E0204380000000800000800000000080008081000EF
:2001E000081020402010080000007E007E00000010080402040810003C42020C100010006D
:200200001C224A564C201E001824427E424242007C22223C22227C001C22404040221C00BC
:2002200078242222222478007E40407840407E007E404078404040001C2240404E221C002C
:200240004242427E424242001C08080808081C000E0404040444380042444870484442008E
:200260004040404040407E0042665A5A424242004262524A464242003C42424242423C0092
:200280007C42427C404040003C4242424A443A007C42427C484442003C42403C02423C0094
:2002A0003E080808080808004242424242423C0042424224241818004242425A5A664200A8
:2002C00042422418244242002222221C080808007E02041820407E003C20202020203C008A
:2002E0002222143E083E08003C04040404043C0008142200000000000000000000007E00D2
:20030000201008000000000000003C043C443A0040405C6242625C0000003C4240423C0031
:2003200002023A4642463A0000003C427E403C000C12107C101010000000344C4C340438E9
:2003400040405C62424242000800180808081C00080018080808483040404448506844008D
:200360001808080808081C00000077494949490000005C624242420000003C4242423C00C4
:2003800000005C62625C404000003A46463A020200005C624040400000003E403C027C00A7
:2003A00010107C1010120C000000424242463A0000004242422418000000494949493600C1
:2003C000000042241824420000004242463A023C00007E0418207E000E10102010100E0043
:2003E000000808080808080070080804080870007E00000000000000704848780808080EAD
:2004000000000000000000FF000000000000FFFF0000000000FFFFFF00000000FFFFFFFFE6
:20042000000000FFFFFFFFFF0000FFFFFFFFFFFF00FFFFFFFFFFFFFFFFFFFFFFFFFFFFFFD6
:200440008080808080808080C0C0C0C0C0C0C0C0E0E0E0E0E0E0E0E0F0F0F0F0F0F0F0F01C
:20046000F8F8F8F8F8F8F8F8FCFCFCFCFCFCFCFCFEFEFEFEFEFEFEFE08080808FF080808B5
:2004800008080808FF00000000000000FF08080808080808F8080808080808080F080808AF
:2004A000FF0000000000000000000000FF00000008080808080808080101010101010101F6
:2004C000000000000F08080800000000F8080808080808080F00000008080808F80000009E
:2004E000000000000304080800000000E0100808080808040300000008080810E0000000BE
:20050000000000000000000000000000382838001C101010000000000000000808083800A7
:2005200000000000201008000000001818000000007E027E0204380000003E020C081000B3
:2005400000000408182808000000083E22020C000000003E08083E000000043E0C142400BF
:200560000000103E121410000000001C04043E0000003E023E023E000000002A2A020C0075
:200580000000003E000000007E021214101020000204081828480800087E42420204380051
:2005A000003E080808083E00087E081828480800107E121212122400083E083E08080800E3
:2005C0001E22420408106000203E440404081000007E020202027E00247E24240408100051
:2005E00000700072020478007E02040818244200207E222420201E0042422202040830006B
:200600001E22520C081060000438087E0808700000525252040870003C007E080810200016
:20062000101010181410100008087E0808102000003C000000007E00003E02140814200026
:20064000083E04081C2A08000202020408102000100804424242420040407E4040403E0098
:20066000007E0202040830000010284402020000083E08082A2A08007E02020428100800C4
:20068000003C003C007C020004081020487C02000002021408146000007E107E10101E0084
:2006A00020207E22242020000038080808087E007E02027E02027E003C007E0204081000C6
:2006C00042424202020408002828282A2A2C48002020202224283000007E424242427E0002
:2006E000007E4242020418000078020204087000104820000000000070507000000000003A
:200700000000FF0000FF000008080F08080F08080808FF0808FF08080808F80808F808083F
:200720000103070F1F3F7FFF80C0E0F0F8FCFEFFFF7F3F1F0F070301FFFEFCF8F0E0C080CB
:20074000081C3E7F7F1C3E0022777F7F3E1C0800081C3E7F3E1C08001C1C7F7F6B083E00BC
:20076000003C7E7E7E7E3C00003C424242423C00010204081020408080402010080402018B
:2007800081422418182442817F49497F41414100203E483E287F08003E223E223E22420013
:2007A0007E42427E42427E0004EEA4FFA2EF0A02182442BD141424003A127F173D52140079
:2007C000003E007F08080808087F087F49494908003E425448543E00F8A8FFAAFA02020452
:2007E0002022FF227AA62224000808102844830055AA55AA55AA55AA000000000000000025
:200800005F84077EE75C399EF3ECC427078300018D031F213934766F64A6633DED66EC6195
:200820003DEB668900ED65E6E4A6633DE365ED6524026C64A6E4E6623DE364ED6435F67D60
:2008400001802604BDE2E5398E0001CEFFFFDCC993C52B05BF01852007FF0185DCC593C9BA
:20086000C30001FD0181FD018BDCCB93C72B05BF01872007FF0187DCC793CBC30001FD01C3
:20088000834F5FFD0189DCC5FD0195DCC7FD01978D4BFC0189F30183FD0189B30181231B65
:2008A000FD0189F60198FB0188F70198FC0189B3018125158D27FC018920E0260CFD018926
:2008C000F60198FB0188F70198FC0195F30185FD0195BE018B301FBF018B26B439C6088E84
:2008E00000C5CE018DBD8A14DCEFDDC5DCF1DDC7FC0195DDC9FC0197DDCBBDE2E5C6088E4A
:20090000018DCE00C57E8A145F9DD8271BBD973227F65F812C2711BD975FBDC04A96748B8E
:20092000069774BD9E4CC43F1F98C40744444439DCCB93C72408405082001CFB1A0139DCEF
:20094000C993C520EF8601971ABD99B01026B1B30F1A398140102618DAC607F701998E0157
:200960009AF101E62702E7805A2AF65F20088140102618C2C601D7FDB601E597FB9DD25F0C
:20098000814126035C9DD2F701A5BDE2287D01B31026B16FBD9732BDE9451F10EE8133CBA9
:2009A000DFF5E680583A9FF3BDC01D1027B1540FF80DFD261E9DD8275303F8BD9732C64731
:2009C000BD97349DD827457D01A51026AD72BDE14320399DD82735BD9732BDE0D1240E7D88
:2009E00001A51026AD5ABDE61AD7FB201F7D01A52706C1011027B10B03F8D7C29DD2270C0B
:200A00007D01A51026AD39BDE617D7FB0DF82603BDE206BDE93F24099EC99FC5C30001DDBA
:200A2000C9BDE93024099ECB9FC7C30001DDCB0DF8102600C196FD2644B601A5263B86066D
:200A40008E0102A7804FBDE0E8C607BDE1168E0104DEF3F60103344033C51193F5102EB038
:200A6000A23540BD8A14DFF3B60101270BCC6403B70102BDE11620D639860820C3DCF593A3
:200A8000F3108300762E21CE0108E7C09EF3BD8A148D428E0103BDE0E896FBB70107DCF59A
:200AA00093F3C3000A7EE102C6779EF3CE0109BD8A148D21CC00808E0101E781BDE0E89674
:200AC000FBC677FD0107C680BDE102DCF3C30077DDF37EEB86D6F8260DF601A52604C60797
:200AE000200FC609200BF601A52604C61C2002C61E4FFD01013996FD262DB601A526248686
:200B00001B8E0102A780BDE0E8F60199CE010BE7C08E019ABD8A14F60199CB0CBDE116BD10
:200B2000EA4E39861D20DADCF593F3108300712E24CE010DE7C09EF3BD8A148D984C8E018B
:200B400003BDE0E896FBD6C2FD010BDCF593F3C3000F7EE102C6729EF3CE010EBD8A14BD93
:200B6000EAD58680B701018E0103BDE0E896FBD6C2FD010BCC7280B7010DBDE102DCF3C3F9
:200B80000072DDF32000DCF593F31083007B2E19CE0103E7C09EF3BD8A148664B70102DC62
:200BA000F593F3C300057EE102C67CCE0103E7C09EF3BD8A148680B70101CC6480B70102C1
:200BC000BDE102DCF3C3007CDDF320BAA6A7DFDEE0D7BDE11FBDE20B9DD85F81292708BD2B
:200BE0009732C601BDCAF73404108E01008608A72296C6D6C8ED23ED258E05A08611A784A8
:200C000010AF02CC0007ED048606A7079DDE35028E0100E6054D2709E604C40FA6052601DD
:200C20005FBD9BEE7E972C564F4C303030303004000001BDEF59CCFC40FD01894F5FFD01A8
:200C4000829DD81026AAF9BDEC5EC60C8EEC27CEFC40BD8A144FC614BDF13B7EF101964786
:200C60004C26078EECB18D07260139437E948DD6BF34140FBFBD9F8E8D328EECA18D2DBD14
:200C8000D336BDD352BE03121026EC3E3402BD9F973516D7BF84DF81592705814E26D04DB1
:200CA000390A2859206F72204E293F20E6807E9FFA0C41726520796F7520737572657D02FD
:200CC000DD1027E30DBDED923188126DA42705C63B7E92AB4F5FFD0182CEFC60FF0189BD72
:200CE000F0FCBDED9CB602DA8120260EBDF101EC4A10A3482D04C61A2043EC4A3406EE2188
:200D0000FF0189CC0001FD018210A3E42C32BDF0FCC6078E02DEA6C5A18526475A2AF7B6F5
:200D200002DA8110274496BF8111260F3420BDEC5EBDF2723520FCFC6A2010C6407E92AB9B
:200D4000C63FB602DA811027F4ECE4ED233028CE02DEC6078D34B602DBF602DCCB42EDA8D3
:200D6000102019FC0182E34A209CEC48C042FD02DBFC0182ED233028C60C8D0E4F5FED259E
:200D8000A7273506B602DAA7A439A6C5A7855A2AF939A6038B4F8480B7019139ECC410839B
:200DA000564F2606A642814C2705C63C7E92AB393188126DA427736FA48110276D8DD3EC91
:200DC00021FD0189EE25EC231F3133CB6D27271D33413001AF25118304002D05C61A7E92F0
:200DE000ABAE21E6278D44FF0182BDF101AE253001A6276D2726078C000127028620AFA825
:200E000012A7A8144F5FFD0182BDF0FCAE213341EF0ABDF1013328AE21C60CBDED8AC60D98
:200E20008D09EC23FD0182BDF10139C12024FB6F855C20F7BF018D308812A684852027072A
:200E40006F84C6337E92ABA6072706812026386F07EC03E38812830001FD0192E607260702
:200E6000EC05C30001ED05EC05E303FD018210B301922F02202ABE018DBDED92308812EC65
:200E800001FD0189BDF0FCBE018D3088126C07EC05E30310B30192260AE607E188142303AB
:200EA00003C039E6075AAE0112A685393402BF018D308812A684851027022084EC01FD0106
:200EC000896C07E6075A10BE01893502A7A5A6078120262AEC05C30001ED05E303FD018249
:200EE000108303FF2F076F84C61A7E92ABBE018DBDED92BDF101BE018D3088126F07398E0F
:200F000000008601C6FFF702D95F39308812A68485201026FF2AEC03E38812830001FD0135
:200F20008BEC03E30510B3018B260AA607A188142D03C6FF395F39308812A684852027035D
:200F400016FEFDEC881283000110A3052705C620E00739E68814E00739BD9E49C100270955
:200F6000C10127037E9B03C680F70191395F2002C601F701808DE2BD9732BD975FBD9E920C
:200F80008C0000102DAB7C8C03FF102EAB75BF0182BD97329DD80F16BD99B9D617C103262D
:200FA000325FF70181D71ABD99E99E587D0180260EE6842601394FFD0187BDF1612039C603
:200FC00020E784BD9C701F109E58ED01C620BDF16120258601971AB70181BD99E91026ABDF
:200FE000220F1A1F10EE8133CBDFF5E680583A9FF3DCF593F3FD01879DD81026A742CCFC74
:00000001FF
